{
  "address": "0x3b6904bf3179aEDD1B191adF85d69D4A9b58c26b",
  "abi": [
    {
      "anonymous": false,
      "inputs": [
        {
          "indexed": true,
          "internalType": "address",
          "name": "account",
          "type": "address"
        },
        {
          "indexed": true,
          "internalType": "address",
          "name": "guardian",
          "type": "address"
        },
        {
          "indexed": false,
          "internalType": "address",
          "name": "newOwner",
          "type": "address"
        }
      ],
      "name": "Approved",
      "type": "event"
    },
    {
      "anonymous": false,
      "inputs": [
        {
          "indexed": true,
          "internalType": "address",
          "name": "account",
          "type": "address"
        },
        {
          "indexed": false,
          "internalType": "address[]",
          "name": "guardians",
          "type": "address[]"
        },
        {
          "indexed": false,
          "internalType": "uint256",
          "name": "approveThreshold",
          "type": "uint256"
        },
        {
          "indexed": false,
          "internalType": "uint256",
          "name": "delayBlock",
          "type": "uint256"
        }
      ],
      "name": "ChangeGuardianConfig",
      "type": "event"
    },
    {
      "anonymous": false,
      "inputs": [
        {
          "indexed": true,
          "internalType": "address",
          "name": "account",
          "type": "address"
        },
        {
          "indexed": true,
          "internalType": "address",
          "name": "guardian",
          "type": "address"
        }
      ],
      "name": "Register",
      "type": "event"
    },
    {
      "inputs": [
        {
          "internalType": "address",
          "name": "account",
          "type": "address"
        },
        {
          "internalType": "address",
          "name": "newAddress",
          "type": "address"
        }
      ],
      "name": "approve",
      "outputs": [],
      "stateMutability": "nonpayable",
      "type": "function"
    },
    {
      "inputs": [
        {
          "internalType": "address",
          "name": "account",
          "type": "address"
        }
      ],
      "name": "clearApproves",
      "outputs": [],
      "stateMutability": "nonpayable",
      "type": "function"
    },
    {
      "inputs": [
        {
          "internalType": "address",
          "name": "account",
          "type": "address"
        }
      ],
      "name": "getApproveProgress",
      "outputs": [
        {
          "internalType": "address",
          "name": "newAddress",
          "type": "address"
        },
        {
          "internalType": "uint256",
          "name": "progress",
          "type": "uint256"
        }
      ],
      "stateMutability": "view",
      "type": "function"
    },
    {
      "inputs": [
        {
          "internalType": "address",
          "name": "account",
          "type": "address"
        }
      ],
      "name": "getGuardianConfig",
      "outputs": [
        {
          "components": [
            {
              "internalType": "address[]",
              "name": "guardians",
              "type": "address[]"
            },
            {
              "internalType": "uint256",
              "name": "approveThreshold",
              "type": "uint256"
            },
            {
              "internalType": "uint256",
              "name": "delay",
              "type": "uint256"
            }
          ],
          "internalType": "struct IGuardian.GuardianConfig",
          "name": "config",
          "type": "tuple"
        }
      ],
      "stateMutability": "view",
      "type": "function"
    },
    {
      "inputs": [
        {
          "internalType": "address[]",
          "name": "addresses",
          "type": "address[]"
        },
        {
          "internalType": "address",
          "name": "target",
          "type": "address"
        }
      ],
      "name": "isAddressInArray",
      "outputs": [
        {
          "internalType": "bool",
          "name": "",
          "type": "bool"
        }
      ],
      "stateMutability": "pure",
      "type": "function"
    },
    {
      "inputs": [
        {
          "internalType": "address",
          "name": "account",
          "type": "address"
        }
      ],
      "name": "resetAccountOwner",
      "outputs": [],
      "stateMutability": "nonpayable",
      "type": "function"
    },
    {
      "inputs": [
        {
          "internalType": "address",
          "name": "account",
          "type": "address"
        },
        {
          "components": [
            {
              "internalType": "address[]",
              "name": "guardians",
              "type": "address[]"
            },
            {
              "internalType": "uint256",
              "name": "approveThreshold",
              "type": "uint256"
            },
            {
              "internalType": "uint256",
              "name": "delay",
              "type": "uint256"
            }
          ],
          "internalType": "struct IGuardian.GuardianConfig",
          "name": "config",
          "type": "tuple"
        }
      ],
      "name": "setConfig",
      "outputs": [],
      "stateMutability": "nonpayable",
      "type": "function"
    }
  ],
  "transactionHash": "0x774b22114b60a588ea72e9a1d49e5a9ff69cb17555efe6615cfcbb2375a39d03",
  "args": [],
  "numDeployments": 1,
  "solcInputHash": "542837e27eb0586ea74c139c4f93ffb7",
  "bytecode": "0x608060405234801561001057600080fd5b50611617806100206000396000f3fe608060405234801561001057600080fd5b506004361061007d5760003560e01c80638895eeb41161005b5780638895eeb4146100ff578063a7d0264014610112578063d1f9445414610125578063d68135d61461013857600080fd5b80630bb6094a146100825780631a9da37b146100ab5780637e5465ba146100ea575b600080fd5b61009561009036600461117d565b61015b565b6040516100a2919061119a565b60405180910390f35b6100be6100b936600461117d565b61022f565b6040805173ffffffffffffffffffffffffffffffffffffffff90931683526020830191909152016100a2565b6100fd6100f8366004611216565b610244565b005b6100fd61010d36600461117d565b610659565b6100fd61012036600461117d565b61080c565b6100fd610133366004611340565b610847565b61014b6101463660046113ec565b610b02565b60405190151581526020016100a2565b61017f60405180606001604052806060815260200160008152602001600081525090565b73ffffffffffffffffffffffffffffffffffffffff8216600090815260208181526040918290208251815460809381028201840190945260608101848152909391928492849184018282801561020b57602002820191906000526020600020905b815473ffffffffffffffffffffffffffffffffffffffff1681526001909101906020018083116101e0575b50505050508152602001600182015481526020016002820154815250509050919050565b60008061023b83610b83565b91509150915091565b73ffffffffffffffffffffffffffffffffffffffff81166102c6576040517f08c379a000000000000000000000000000000000000000000000000000000000815260206004820152601d60248201527f6e6577206f776e657220697320746865207a65726f206164647265737300000060448201526064015b60405180910390fd5b73ffffffffffffffffffffffffffffffffffffffff8216600090815260208181526040918290208054835181840281018401909452808452610354939283018282801561034957602002820191906000526020600020905b815473ffffffffffffffffffffffffffffffffffffffff16815260019091019060200180831161031e575b505050505033610b02565b6103ba576040517f08c379a000000000000000000000000000000000000000000000000000000000815260206004820152601660248201527f796f7520617265206e6f74206120677561726469616e0000000000000000000060448201526064016102bd565b73ffffffffffffffffffffffffffffffffffffffff8216600090815260208181526040808320815181546080948102820185019093526060810183815290939192849284919084018282801561044657602002820191906000526020600020905b815473ffffffffffffffffffffffffffffffffffffffff16815260019091019060200180831161041b575b5050505050815260200160018201548152602001600282015481525050905060005b81515181101561057b5760008260000151828151811061048a5761048a611433565b60209081029190910181015173ffffffffffffffffffffffffffffffffffffffff80881660009081526001845260408082208385168352909452929092205490925016801580159061050857508473ffffffffffffffffffffffffffffffffffffffff168173ffffffffffffffffffffffffffffffffffffffff1614155b156105665773ffffffffffffffffffffffffffffffffffffffff808716600090815260016020908152604080832093861683529290522080547fffffffffffffffffffffffff00000000000000000000000000000000000000001690555b5050808061057390611491565b915050610468565b5073ffffffffffffffffffffffffffffffffffffffff8381166000818152600160209081526040808320338452825280832080547fffffffffffffffffffffffff000000000000000000000000000000000000000016958816959095179094559181529081905220600201546105f190436114c9565b73ffffffffffffffffffffffffffffffffffffffff84811660008181526002602090815260409182902094909455519185168252339290917f64bdc57a1d7fc474b76b6e1fa7a6bebdab2700e6da97a0134c0937672eabd2a0910160405180910390a3505050565b60008061066583610b83565b73ffffffffffffffffffffffffffffffffffffffff851660009081526020819052604090206001015491935091508111156107845773ffffffffffffffffffffffffffffffffffffffff831660009081526002602052604090205443101561074f576040517f08c379a000000000000000000000000000000000000000000000000000000000815260206004820152602860248201527f7468652064656c61792072657365742074696d6520686173206e6f742079657460448201527f207265616368656400000000000000000000000000000000000000000000000060648201526084016102bd565b73ffffffffffffffffffffffffffffffffffffffff831660009081526002602052604081205561077f8383610d68565b505050565b6040517f08c379a000000000000000000000000000000000000000000000000000000000815260206004820152602860248201527f746865207468726573686f6c642076616c756520686173206e6f74206265656e60448201527f207265616368656400000000000000000000000000000000000000000000000060648201526084016102bd565b61081581610df6565b73ffffffffffffffffffffffffffffffffffffffff811660009081526002602052604081205561084481610f19565b50565b61085082610df6565b6000816020015111801561086957506064816020015111155b61091b576040517f08c379a000000000000000000000000000000000000000000000000000000000815260206004820152605060248201527f546865207468726573686f6c642076616c7565206d757374206265206120766160448201527f6c75652067726561746572207468616e203020616e64206c657373207468616e60648201527f206f7220657175616c20746f2031303000000000000000000000000000000000608482015260a4016102bd565b80515160051015610988576040517f08c379a000000000000000000000000000000000000000000000000000000000815260206004820152601160248201527f557020746f203520677561726469616e7300000000000000000000000000000060448201526064016102bd565b6000816040015111610a42576040517f08c379a000000000000000000000000000000000000000000000000000000000815260206004820152604e60248201527f746865206e756d626572206f662064656c61796564207665726966696361746960448201527f6f6e20626c6f636b732030206d7573742062652067726561746572207468616e60648201527f206f7220657175616c20746f2031000000000000000000000000000000000000608482015260a4016102bd565b73ffffffffffffffffffffffffffffffffffffffff8216600090815260208181526040909120825180518493610a7c9284929101906110bc565b5060208281015160018084019190915560409384015160029384015573ffffffffffffffffffffffffffffffffffffffff8616600081815292839052918490209081015492810154935191937f50a3a7b086c8dd17e483488070fd8b3249405396f04875f9fcc2a8b459da63a893610af6939091906114e1565b60405180910390a25050565b6000805b8351811015610b77578273ffffffffffffffffffffffffffffffffffffffff16848281518110610b3857610b38611433565b602002602001015173ffffffffffffffffffffffffffffffffffffffff1603610b65576001915050610b7d565b80610b6f81611491565b915050610b06565b50600090505b92915050565b73ffffffffffffffffffffffffffffffffffffffff8116600090815260208181526040808320815181546080948102820185019093526060810183815285948594929392849291849190840182828015610c1357602002820191906000526020600020905b815473ffffffffffffffffffffffffffffffffffffffff168152600190910190602001808311610be8575b505050505081526020016001820154815260200160028201548152505090506000805b825151811015610d4257600083600001518281518110610c5857610c58611433565b60209081029190910181015173ffffffffffffffffffffffffffffffffffffffff808a166000908152600184526040808220838516835290945292909220549092508116908716158015610cc1575073ffffffffffffffffffffffffffffffffffffffff811615155b15610cca578096505b73ffffffffffffffffffffffffffffffffffffffff811615801590610d1a57508673ffffffffffffffffffffffffffffffffffffffff168173ffffffffffffffffffffffffffffffffffffffff16145b15610d2d57610d2a6001856114c9565b93505b50508080610d3a90611491565b915050610c36565b508151518490610d5d90610d5784606461109d565b906110b0565b935093505050915091565b6040517f73cc802a00000000000000000000000000000000000000000000000000000000815273ffffffffffffffffffffffffffffffffffffffff82811660048301528316906373cc802a90602401600060405180830381600087803b158015610dd157600080fd5b505af1158015610de5573d6000803e3d6000fd5b50505050610df282610f19565b5050565b3373ffffffffffffffffffffffffffffffffffffffff82161480610eb357508073ffffffffffffffffffffffffffffffffffffffff16638da5cb5b6040518163ffffffff1660e01b8152600401602060405180830381865afa158015610e60573d6000803e3d6000fd5b505050506040513d601f19601f82011682018060405250810190610e84919061154c565b73ffffffffffffffffffffffffffffffffffffffff163373ffffffffffffffffffffffffffffffffffffffff16145b610844576040517f08c379a000000000000000000000000000000000000000000000000000000000815260206004820152601e60248201527f6163636f756e743a206e6f7420746865206163636f756e74206f776e6572000060448201526064016102bd565b73ffffffffffffffffffffffffffffffffffffffff81166000908152602081815260408083208151815460809481028201850190935260608101838152909391928492849190840182828015610fa557602002820191906000526020600020905b815473ffffffffffffffffffffffffffffffffffffffff168152600190910190602001808311610f7a575b5050505050815260200160018201548152602001600282015481525050905060005b81515181101561077f57600082600001518281518110610fe957610fe9611433565b60209081029190910181015173ffffffffffffffffffffffffffffffffffffffff868116600090815260018452604080822083851683529094529290922054909250161561108a5773ffffffffffffffffffffffffffffffffffffffff808516600090815260016020908152604080832093851683529290522080547fffffffffffffffffffffffff00000000000000000000000000000000000000001690555b508061109581611491565b915050610fc7565b60006110a98284611569565b9392505050565b60006110a982846115a6565b828054828255906000526020600020908101928215611136579160200282015b8281111561113657825182547fffffffffffffffffffffffff00000000000000000000000000000000000000001673ffffffffffffffffffffffffffffffffffffffff9091161782556020909201916001909101906110dc565b50611142929150611146565b5090565b5b808211156111425760008155600101611147565b73ffffffffffffffffffffffffffffffffffffffff8116811461084457600080fd5b60006020828403121561118f57600080fd5b81356110a98161115b565b6020808252825160608383015280516080840181905260009291820190839060a08601905b808310156111f557835173ffffffffffffffffffffffffffffffffffffffff1682529284019260019290920191908401906111bf565b50838701516040870152604087015160608701528094505050505092915050565b6000806040838503121561122957600080fd5b82356112348161115b565b915060208301356112448161115b565b809150509250929050565b7f4e487b7100000000000000000000000000000000000000000000000000000000600052604160045260246000fd5b600082601f83011261128f57600080fd5b8135602067ffffffffffffffff808311156112ac576112ac61124f565b8260051b6040517fffffffffffffffffffffffffffffffffffffffffffffffffffffffffffffffe0603f830116810181811084821117156112ef576112ef61124f565b60405293845285810183019383810192508785111561130d57600080fd5b83870191505b848210156113355781356113268161115b565b83529183019190830190611313565b979650505050505050565b6000806040838503121561135357600080fd5b823561135e8161115b565b9150602083013567ffffffffffffffff8082111561137b57600080fd5b908401906060828703121561138f57600080fd5b6040516060810181811083821117156113aa576113aa61124f565b6040528235828111156113bc57600080fd5b6113c88882860161127e565b82525060208301356020820152604083013560408201528093505050509250929050565b600080604083850312156113ff57600080fd5b823567ffffffffffffffff81111561141657600080fd5b6114228582860161127e565b92505060208301356112448161115b565b7f4e487b7100000000000000000000000000000000000000000000000000000000600052603260045260246000fd5b7f4e487b7100000000000000000000000000000000000000000000000000000000600052601160045260246000fd5b60007fffffffffffffffffffffffffffffffffffffffffffffffffffffffffffffffff82036114c2576114c2611462565b5060010190565b600082198211156114dc576114dc611462565b500190565b6000606082016060835280865480835260808501915087600052602092508260002060005b8281101561153857815473ffffffffffffffffffffffffffffffffffffffff1684529284019260019182019101611506565b505050908301949094525060400152919050565b60006020828403121561155e57600080fd5b81516110a98161115b565b6000817fffffffffffffffffffffffffffffffffffffffffffffffffffffffffffffffff04831182151516156115a1576115a1611462565b500290565b6000826115dc577f4e487b7100000000000000000000000000000000000000000000000000000000600052601260045260246000fd5b50049056fea26469706673582212207c60e3a93e2082050f9316a26205a5a906f258d81db8d0a8a7fb9ed9935393ab64736f6c634300080f0033",
  "devdoc": {
    "kind": "dev",
    "methods": {},
    "version": 1
  },
  "userdoc": {
    "kind": "user",
    "methods": {},
    "version": 1
  },
  "storageLayout": {
    "storage": [
      {
        "astId": 11556,
        "contract": "contracts/samples/Guardian.sol:Guardian",
        "label": "_cabinet",
        "offset": 0,
        "slot": "0",
        "type": "t_mapping(t_address,t_struct(GuardianConfig)10668_storage)"
      },
      {
        "astId": 11562,
        "contract": "contracts/samples/Guardian.sol:Guardian",
        "label": "_approvesProgress",
        "offset": 0,
        "slot": "1",
        "type": "t_mapping(t_address,t_mapping(t_address,t_address))"
      },
      {
        "astId": 11566,
        "contract": "contracts/samples/Guardian.sol:Guardian",
        "label": "_closestReset",
        "offset": 0,
        "slot": "2",
        "type": "t_mapping(t_address,t_uint256)"
      }
    ],
    "types": {
      "t_address": {
        "encoding": "inplace",
        "label": "address",
        "numberOfBytes": "20"
      },
      "t_array(t_address)dyn_storage": {
        "base": "t_address",
        "encoding": "dynamic_array",
        "label": "address[]",
        "numberOfBytes": "32"
      },
      "t_mapping(t_address,t_address)": {
        "encoding": "mapping",
        "key": "t_address",
        "label": "mapping(address => address)",
        "numberOfBytes": "32",
        "value": "t_address"
      },
      "t_mapping(t_address,t_mapping(t_address,t_address))": {
        "encoding": "mapping",
        "key": "t_address",
        "label": "mapping(address => mapping(address => address))",
        "numberOfBytes": "32",
        "value": "t_mapping(t_address,t_address)"
      },
      "t_mapping(t_address,t_struct(GuardianConfig)10668_storage)": {
        "encoding": "mapping",
        "key": "t_address",
        "label": "mapping(address => struct IGuardian.GuardianConfig)",
        "numberOfBytes": "32",
        "value": "t_struct(GuardianConfig)10668_storage"
      },
      "t_mapping(t_address,t_uint256)": {
        "encoding": "mapping",
        "key": "t_address",
        "label": "mapping(address => uint256)",
        "numberOfBytes": "32",
        "value": "t_uint256"
      },
      "t_struct(GuardianConfig)10668_storage": {
        "encoding": "inplace",
        "label": "struct IGuardian.GuardianConfig",
        "members": [
          {
            "astId": 10663,
            "contract": "contracts/samples/Guardian.sol:Guardian",
            "label": "guardians",
            "offset": 0,
            "slot": "0",
            "type": "t_array(t_address)dyn_storage"
          },
          {
            "astId": 10665,
            "contract": "contracts/samples/Guardian.sol:Guardian",
            "label": "approveThreshold",
            "offset": 0,
            "slot": "1",
            "type": "t_uint256"
          },
          {
            "astId": 10667,
            "contract": "contracts/samples/Guardian.sol:Guardian",
            "label": "delay",
            "offset": 0,
            "slot": "2",
            "type": "t_uint256"
          }
        ],
        "numberOfBytes": "96"
      },
      "t_uint256": {
        "encoding": "inplace",
        "label": "uint256",
        "numberOfBytes": "32"
      }
    }
  }
}