{
  "address": "0xc38A77cC218126a7f549F62C51078b3cF24085fd",
  "abi": [
    {
      "inputs": [
        {
          "internalType": "contract IEntryPoint",
          "name": "_entryPoint",
          "type": "address"
        }
      ],
      "stateMutability": "nonpayable",
      "type": "constructor"
    },
    {
      "inputs": [],
      "name": "accountImplementation",
      "outputs": [
        {
          "internalType": "contract TSPAccount",
          "name": "",
          "type": "address"
        }
      ],
      "stateMutability": "view",
      "type": "function"
    },
    {
      "inputs": [
        {
          "internalType": "address",
          "name": "owner",
          "type": "address"
        },
        {
          "internalType": "uint256",
          "name": "salt",
          "type": "uint256"
        },
        {
          "internalType": "address",
          "name": "guardian",
          "type": "address"
        },
        {
          "internalType": "uint256",
          "name": "threshold",
          "type": "uint256"
        },
        {
          "internalType": "uint256",
          "name": "guardianDelay",
          "type": "uint256"
        },
        {
          "internalType": "address[]",
          "name": "guardians",
          "type": "address[]"
        }
      ],
      "name": "createAccount",
      "outputs": [
        {
          "internalType": "contract TSPAccount",
          "name": "ret",
          "type": "address"
        }
      ],
      "stateMutability": "nonpayable",
      "type": "function"
    },
    {
      "inputs": [
        {
          "internalType": "address",
          "name": "owner",
          "type": "address"
        },
        {
          "internalType": "uint256",
          "name": "salt",
          "type": "uint256"
        },
        {
          "internalType": "address",
          "name": "guardian",
          "type": "address"
        },
        {
          "internalType": "uint256",
          "name": "threshold",
          "type": "uint256"
        },
        {
          "internalType": "uint256",
          "name": "guardianDelay",
          "type": "uint256"
        },
        {
          "internalType": "address[]",
          "name": "guardians",
          "type": "address[]"
        }
      ],
      "name": "getAddress",
      "outputs": [
        {
          "internalType": "address",
          "name": "",
          "type": "address"
        }
      ],
      "stateMutability": "view",
      "type": "function"
    }
  ],
  "transactionHash": "0xe71bc0fdea3fdd0b78181fc0a5cdace6fa0b14d7b6b6562876be95d768436bb6",
  "args": [
    "0xe21BaD6fC060dF4dbAfF1AC68e61Aa1584233CE6"
  ],
  "numDeployments": 1,
  "solcInputHash": "542837e27eb0586ea74c139c4f93ffb7",
  "bytecode": "0x60a060405234801561001057600080fd5b5060405161421138038061421183398101604081905261002f91610088565b8060405161003c9061007b565b6001600160a01b039091168152602001604051809103906000f080158015610068573d6000803e3d6000fd5b506001600160a01b0316608052506100b8565b6132aa80610f6783390190565b60006020828403121561009a57600080fd5b81516001600160a01b03811681146100b157600080fd5b9392505050565b608051610e886100df6000396000818160510152818160fc01526102670152610e886000f3fe60806040523480156200001157600080fd5b5060043610620000465760003560e01c806311464fbe146200004b5780631663e1f3146200009c5780631e00a14d14620000b3575b600080fd5b620000737f000000000000000000000000000000000000000000000000000000000000000081565b60405173ffffffffffffffffffffffffffffffffffffffff909116815260200160405180910390f35b62000073620000ad36600462000406565b620000ca565b62000073620000c436600462000406565b62000224565b6000620002178660001b60405180602001620000e6906200039f565b6020820181038252601f19601f820116604052507f00000000000000000000000000000000000000000000000000000000000000008a89898989604051602401620001369594939291906200053a565b604080517fffffffffffffffffffffffffffffffffffffffffffffffffffffffffffffffe0818403018152918152602080830180517bffffffffffffffffffffffffffffffffffffffffffffffffffffffff167f5a907818000000000000000000000000000000000000000000000000000000001790529051620001bd93929101620005ee565b604080517fffffffffffffffffffffffffffffffffffffffffffffffffffffffffffffffe081840301815290829052620001fb92916020016200065e565b604051602081830303815290604052805190602001206200035f565b90505b9695505050505050565b60008062000237888888888888620000ca565b905073ffffffffffffffffffffffffffffffffffffffff81163b801562000261575090506200021a565b8760001b7f00000000000000000000000000000000000000000000000000000000000000008a89898989604051602401620002a19594939291906200053a565b604080517fffffffffffffffffffffffffffffffffffffffffffffffffffffffffffffffe08184030181529181526020820180517bffffffffffffffffffffffffffffffffffffffffffffffffffffffff167f5a907818000000000000000000000000000000000000000000000000000000001790525162000323906200039f565b62000330929190620005ee565b8190604051809103906000f590508015801562000351573d6000803e3d6000fd5b509998505050505050505050565b60006200036e83833062000375565b9392505050565b6000604051836040820152846020820152828152600b8101905060ff815360559020949350505050565b6107c1806200069283390190565b803573ffffffffffffffffffffffffffffffffffffffff81168114620003d257600080fd5b919050565b7f4e487b7100000000000000000000000000000000000000000000000000000000600052604160045260246000fd5b60008060008060008060c087890312156200042057600080fd5b6200042b87620003ad565b955060208088013595506200044360408901620003ad565b9450606088013593506080880135925060a088013567ffffffffffffffff808211156200046f57600080fd5b818a0191508a601f8301126200048457600080fd5b813581811115620004995762000499620003d7565b8060051b6040517fffffffffffffffffffffffffffffffffffffffffffffffffffffffffffffffe0603f83011681018181108582111715620004df57620004df620003d7565b60405291825284820192508381018501918d831115620004fe57600080fd5b938501935b8285101562000527576200051785620003ad565b8452938501939285019262000503565b8096505050505050509295509295509295565b600060a0820173ffffffffffffffffffffffffffffffffffffffff808916845260208189168186015287604086015286606086015260a0608086015282865180855260c087019150828801945060005b81811015620005aa5785518516835294830194918301916001016200058a565b50909b9a5050505050505050505050565b60005b83811015620005d8578181015183820152602001620005be565b83811115620005e8576000848401525b50505050565b73ffffffffffffffffffffffffffffffffffffffff8316815260406020820152600082518060408401526200062b816060850160208701620005bb565b601f017fffffffffffffffffffffffffffffffffffffffffffffffffffffffffffffffe016919091016060019392505050565b6000835162000672818460208801620005bb565b83519083019062000688818360208801620005bb565b0194935050505056fe60806040526040516107c13803806107c183398101604081905261002291610321565b61002e82826000610035565b505061043e565b61003e8361006b565b60008251118061004b5750805b156100665761006483836100ab60201b6100291760201c565b505b505050565b610074816100d7565b6040516001600160a01b038216907fbc7cd75a20ee27fd9adebab32041f755214dbc6bffa90cc0225b39da2e5c2d3b90600090a250565b60606100d0838360405180606001604052806027815260200161079a602791396101a9565b9392505050565b6100ea8161022260201b6100551760201c565b6101515760405162461bcd60e51b815260206004820152602d60248201527f455243313936373a206e657720696d706c656d656e746174696f6e206973206e60448201526c1bdd08184818dbdb9d1c9858dd609a1b60648201526084015b60405180910390fd5b806101887f360894a13ba1a3210667c828492db98dca3e2076cc3735a920a3ca505d382bbc60001b61023160201b6100711760201c565b80546001600160a01b0319166001600160a01b039290921691909117905550565b6060600080856001600160a01b0316856040516101c691906103ef565b600060405180830381855af49150503d8060008114610201576040519150601f19603f3d011682016040523d82523d6000602084013e610206565b606091505b50909250905061021886838387610234565b9695505050505050565b6001600160a01b03163b151590565b90565b606083156102a357825160000361029c576001600160a01b0385163b61029c5760405162461bcd60e51b815260206004820152601d60248201527f416464726573733a2063616c6c20746f206e6f6e2d636f6e74726163740000006044820152606401610148565b50816102ad565b6102ad83836102b5565b949350505050565b8151156102c55781518083602001fd5b8060405162461bcd60e51b8152600401610148919061040b565b634e487b7160e01b600052604160045260246000fd5b60005b838110156103105781810151838201526020016102f8565b838111156100645750506000910152565b6000806040838503121561033457600080fd5b82516001600160a01b038116811461034b57600080fd5b60208401519092506001600160401b038082111561036857600080fd5b818501915085601f83011261037c57600080fd5b81518181111561038e5761038e6102df565b604051601f8201601f19908116603f011681019083821181831017156103b6576103b66102df565b816040528281528860208487010111156103cf57600080fd5b6103e08360208301602088016102f5565b80955050505050509250929050565b600082516104018184602087016102f5565b9190910192915050565b602081526000825180602084015261042a8160408501602087016102f5565b601f01601f19169190910160400192915050565b61034d8061044d6000396000f3fe60806040523661001357610011610017565b005b6100115b610027610022610074565b6100b9565b565b606061004e83836040518060600160405280602781526020016102f1602791396100dd565b9392505050565b73ffffffffffffffffffffffffffffffffffffffff163b151590565b90565b60006100b47f360894a13ba1a3210667c828492db98dca3e2076cc3735a920a3ca505d382bbc5473ffffffffffffffffffffffffffffffffffffffff1690565b905090565b3660008037600080366000845af43d6000803e8080156100d8573d6000f35b3d6000fd5b60606000808573ffffffffffffffffffffffffffffffffffffffff16856040516101079190610283565b600060405180830381855af49150503d8060008114610142576040519150601f19603f3d011682016040523d82523d6000602084013e610147565b606091505b509150915061015886838387610162565b9695505050505050565b606083156101fd5782516000036101f65773ffffffffffffffffffffffffffffffffffffffff85163b6101f6576040517f08c379a000000000000000000000000000000000000000000000000000000000815260206004820152601d60248201527f416464726573733a2063616c6c20746f206e6f6e2d636f6e747261637400000060448201526064015b60405180910390fd5b5081610207565b610207838361020f565b949350505050565b81511561021f5781518083602001fd5b806040517f08c379a00000000000000000000000000000000000000000000000000000000081526004016101ed919061029f565b60005b8381101561026e578181015183820152602001610256565b8381111561027d576000848401525b50505050565b60008251610295818460208701610253565b9190910192915050565b60208152600082518060208401526102be816040850160208701610253565b601f017fffffffffffffffffffffffffffffffffffffffffffffffffffffffffffffffe016919091016040019291505056fe416464726573733a206c6f772d6c6576656c2064656c65676174652063616c6c206661696c6564a26469706673582212201cd78ab6a31213989661cff2d7d05fc9b9c38b1a848e8249e2e398659a9eb7e364736f6c634300080f0033416464726573733a206c6f772d6c6576656c2064656c65676174652063616c6c206661696c6564a2646970667358221220f7fda8b8a96115878bd62544d443767da3a6f24e8e0b24cf7ab6e923c37c607464736f6c634300080f003360c0604052306080523480156200001557600080fd5b50604051620032aa380380620032aa83398101604081905262000038916200011a565b6001600160a01b03811660a052806200005062000058565b50506200014c565b600054610100900460ff1615620000c55760405162461bcd60e51b815260206004820152602760248201527f496e697469616c697a61626c653a20636f6e747261637420697320696e697469604482015266616c697a696e6760c81b606482015260840160405180910390fd5b60005460ff908116101562000118576000805460ff191660ff9081179091556040519081527f7f26b83ff96e1f2b6a682f133852f6798a09c465da95921460cefb38474024989060200160405180910390a15b565b6000602082840312156200012d57600080fd5b81516001600160a01b03811681146200014557600080fd5b9392505050565b60805160a0516130eb620001bf6000396000818161048d01528181610a9701528181610b3e01528181611321015281816115720152818161171e01528181611b7a0152611da80152600081816108840152818161093401528181610c0201528181610cb20152610e6901526130eb6000f3fe6080604052600436106101af5760003560e01c806352d1902d116100ec578063bc197c811161008a578063d087d28811610064578063d087d2881461054e578063d11a1f0714610563578063e7f43c6814610590578063f23a6e61146105bb57600080fd5b8063bc197c81146104d1578063c399ec8814610519578063c4d66de81461052e57600080fd5b80638da5cb5b116100c65780638da5cb5b146103fb578063a75b87d214610453578063b0d691fe1461047e578063b61d27f6146104b157600080fd5b806352d1902d146103a65780635a907818146103bb57806373cc802a146103db57600080fd5b80632fcb4f04116101595780634a58db19116101335780634a58db191461034b5780634d44560d146103535780634f1ef2861461037357806351335b501461038657600080fd5b80632fcb4f04146102eb5780633659cfe61461030b5780633a871cdd1461032b57600080fd5b80630d8e6e2c1161018a5780630d8e6e2c14610237578063150b7a021461025557806318dfb3c7146102cb57600080fd5b806223de29146101bb57806301ffc9a7146101e257806306394c9b1461021757600080fd5b366101b657005b600080fd5b3480156101c757600080fd5b506101e06101d6366004612569565b5050505050505050565b005b3480156101ee57600080fd5b506102026101fd36600461261a565b610601565b60405190151581526020015b60405180910390f35b34801561022357600080fd5b506101e061023236600461265c565b6106e6565b34801561024357600080fd5b5060015b60405190815260200161020e565b34801561026157600080fd5b5061029a610270366004612679565b7f150b7a020000000000000000000000000000000000000000000000000000000095945050505050565b6040517fffffffff00000000000000000000000000000000000000000000000000000000909116815260200161020e565b3480156102d757600080fd5b506101e06102e6366004612731565b610735565b3480156102f757600080fd5b506101e061030636600461265c565b610859565b34801561031757600080fd5b506101e061032636600461265c565b61086d565b34801561033757600080fd5b5061024761034636600461279d565b610a6f565b6101e0610a95565b34801561035f57600080fd5b506101e061036e3660046127f1565b610b34565b6101e0610381366004612911565b610beb565b34801561039257600080fd5b506101e06103a1366004612995565b610de1565b3480156103b257600080fd5b50610247610e4f565b3480156103c757600080fd5b506101e06103d63660046129ef565b610f3b565b3480156103e757600080fd5b506101e06103f636600461265c565b61117d565b34801561040757600080fd5b5060005461042e9062010000900473ffffffffffffffffffffffffffffffffffffffff1681565b60405173ffffffffffffffffffffffffffffffffffffffff909116815260200161020e565b34801561045f57600080fd5b5060025473ffffffffffffffffffffffffffffffffffffffff1661042e565b34801561048a57600080fd5b507f000000000000000000000000000000000000000000000000000000000000000061042e565b3480156104bd57600080fd5b506101e06104cc366004612adc565b611292565b3480156104dd57600080fd5b5061029a6104ec366004612b2c565b7fbc197c810000000000000000000000000000000000000000000000000000000098975050505050505050565b34801561052557600080fd5b506102476112db565b34801561053a57600080fd5b506101e061054936600461265c565b611392565b34801561055a57600080fd5b50610247611525565b34801561056f57600080fd5b5061058361057e366004612bca565b6115a1565b60405161020e9190612c2b565b34801561059c57600080fd5b5060015473ffffffffffffffffffffffffffffffffffffffff1661042e565b3480156105c757600080fd5b5061029a6105d6366004612c7c565b7ff23a6e61000000000000000000000000000000000000000000000000000000009695505050505050565b60007fffffffff0000000000000000000000000000000000000000000000000000000082167f150b7a0200000000000000000000000000000000000000000000000000000000148061069457507fffffffff0000000000000000000000000000000000000000000000000000000082167f4e2312e000000000000000000000000000000000000000000000000000000000145b806106e057507fffffffff0000000000000000000000000000000000000000000000000000000082167f01ffc9a700000000000000000000000000000000000000000000000000000000145b92915050565b6106ee611673565b600180547fffffffffffffffffffffffff00000000000000000000000000000000000000001673ffffffffffffffffffffffffffffffffffffffff92909216919091179055565b61073d611706565b8281146107ab576040517f08c379a000000000000000000000000000000000000000000000000000000000815260206004820152601360248201527f77726f6e67206172726179206c656e677468730000000000000000000000000060448201526064015b60405180910390fd5b60005b83811015610852576108408585838181106107cb576107cb612cf8565b90506020020160208101906107e0919061265c565b60008585858181106107f4576107f4612cf8565b90506020028101906108069190612d27565b8080601f01602080910402602001604051908101604052809392919081815260200183838082843760009201919091525061181592505050565b8061084a81612d8c565b9150506107ae565b5050505050565b610861611673565b61086a81611892565b50565b73ffffffffffffffffffffffffffffffffffffffff7f0000000000000000000000000000000000000000000000000000000000000000163003610932576040517f08c379a000000000000000000000000000000000000000000000000000000000815260206004820152602c60248201527f46756e6374696f6e206d7573742062652063616c6c6564207468726f7567682060448201527f64656c656761746563616c6c000000000000000000000000000000000000000060648201526084016107a2565b7f000000000000000000000000000000000000000000000000000000000000000073ffffffffffffffffffffffffffffffffffffffff166109a77f360894a13ba1a3210667c828492db98dca3e2076cc3735a920a3ca505d382bbc5473ffffffffffffffffffffffffffffffffffffffff1690565b73ffffffffffffffffffffffffffffffffffffffff1614610a4a576040517f08c379a000000000000000000000000000000000000000000000000000000000815260206004820152602c60248201527f46756e6374696f6e206d7573742062652063616c6c6564207468726f7567682060448201527f6163746976652070726f7879000000000000000000000000000000000000000060648201526084016107a2565b610a5381611956565b6040805160008082526020820190925261086a9183919061195e565b6000610a79611b62565b610a838484611c01565b9050610a8e82611ce7565b9392505050565b7f00000000000000000000000000000000000000000000000000000000000000006040517fb760faf900000000000000000000000000000000000000000000000000000000815230600482015273ffffffffffffffffffffffffffffffffffffffff919091169063b760faf99034906024016000604051808303818588803b158015610b2057600080fd5b505af1158015610852573d6000803e3d6000fd5b610b3c611673565b7f00000000000000000000000000000000000000000000000000000000000000006040517f205c287800000000000000000000000000000000000000000000000000000000815273ffffffffffffffffffffffffffffffffffffffff848116600483015260248201849052919091169063205c287890604401600060405180830381600087803b158015610bcf57600080fd5b505af1158015610be3573d6000803e3d6000fd5b505050505050565b73ffffffffffffffffffffffffffffffffffffffff7f0000000000000000000000000000000000000000000000000000000000000000163003610cb0576040517f08c379a000000000000000000000000000000000000000000000000000000000815260206004820152602c60248201527f46756e6374696f6e206d7573742062652063616c6c6564207468726f7567682060448201527f64656c656761746563616c6c000000000000000000000000000000000000000060648201526084016107a2565b7f000000000000000000000000000000000000000000000000000000000000000073ffffffffffffffffffffffffffffffffffffffff16610d257f360894a13ba1a3210667c828492db98dca3e2076cc3735a920a3ca505d382bbc5473ffffffffffffffffffffffffffffffffffffffff1690565b73ffffffffffffffffffffffffffffffffffffffff1614610dc8576040517f08c379a000000000000000000000000000000000000000000000000000000000815260206004820152602c60248201527f46756e6374696f6e206d7573742062652063616c6c6564207468726f7567682060448201527f6163746976652070726f7879000000000000000000000000000000000000000060648201526084016107a2565b610dd182611956565b610ddd8282600161195e565b5050565b610de9611673565b80518190600003610e1e57600383604051610e049190612deb565b90815260200160405180910390206000610e1e91906124b7565b81600384604051610e2f9190612deb565b90815260200160405180910390209081610e499190612ea0565b50505050565b60003073ffffffffffffffffffffffffffffffffffffffff7f00000000000000000000000000000000000000000000000000000000000000001614610f16576040517f08c379a000000000000000000000000000000000000000000000000000000000815260206004820152603860248201527f555550535570677261646561626c653a206d757374206e6f742062652063616c60448201527f6c6564207468726f7567682064656c656761746563616c6c000000000000000060648201526084016107a2565b507f360894a13ba1a3210667c828492db98dca3e2076cc3735a920a3ca505d382bbc90565b600054610100900460ff1615808015610f5b5750600054600160ff909116105b80610f755750303b158015610f75575060005460ff166001145b611001576040517f08c379a000000000000000000000000000000000000000000000000000000000815260206004820152602e60248201527f496e697469616c697a61626c653a20636f6e747261637420697320616c72656160448201527f647920696e697469616c697a656400000000000000000000000000000000000060648201526084016107a2565b600080547fffffffffffffffffffffffffffffffffffffffffffffffffffffffffffffff00166001179055801561105f57600080547fffffffffffffffffffffffffffffffffffffffffffffffffffffffffffff00ff166101001790555b61106886611d52565b61107185611892565b600254604080516060810182528481526020810187905280820186905290517fd1f9445400000000000000000000000000000000000000000000000000000000815273ffffffffffffffffffffffffffffffffffffffff9092169163d1f94454916110e191309190600401612fba565b600060405180830381600087803b1580156110fb57600080fd5b505af115801561110f573d6000803e3d6000fd5b505050508015610be357600080547fffffffffffffffffffffffffffffffffffffffffffffffffffffffffffff00ff169055604051600181527f7f26b83ff96e1f2b6a682f133852f6798a09c465da95921460cefb38474024989060200160405180910390a1505050505050565b73ffffffffffffffffffffffffffffffffffffffff81166111fa576040517f08c379a000000000000000000000000000000000000000000000000000000000815260206004820152601d60248201527f6e6577206f776e657220697320746865207a65726f206164647265737300000060448201526064016107a2565b611202611df1565b600080547fffffffffffffffffffff0000000000000000000000000000000000000000ffff166201000073ffffffffffffffffffffffffffffffffffffffff84811682810293909317938490556040805192909404168152602081019190915230917f062163f9c32b5f0b299e6e69f3bb349798cb5a44e0484821341ae9b5a5f8101d910160405180910390a250565b61129a611706565b610e49848484848080601f01602080910402602001604051908101604052809392919081815260200183838082843760009201919091525061181592505050565b6040517f70a0823100000000000000000000000000000000000000000000000000000000815230600482015260009073ffffffffffffffffffffffffffffffffffffffff7f000000000000000000000000000000000000000000000000000000000000000016906370a08231906024015b602060405180830381865afa158015611369573d6000803e3d6000fd5b505050506040513d601f19601f8201168201806040525081019061138d9190613046565b905090565b600054610100900460ff16158080156113b25750600054600160ff909116105b806113cc5750303b1580156113cc575060005460ff166001145b611458576040517f08c379a000000000000000000000000000000000000000000000000000000000815260206004820152602e60248201527f496e697469616c697a61626c653a20636f6e747261637420697320616c72656160448201527f647920696e697469616c697a656400000000000000000000000000000000000060648201526084016107a2565b600080547fffffffffffffffffffffffffffffffffffffffffffffffffffffffffffffff0016600117905580156114b657600080547fffffffffffffffffffffffffffffffffffffffffffffffffffffffffffff00ff166101001790555b6114bf82611d52565b8015610ddd57600080547fffffffffffffffffffffffffffffffffffffffffffffffffffffffffffff00ff169055604051600181527f7f26b83ff96e1f2b6a682f133852f6798a09c465da95921460cefb38474024989060200160405180910390a15050565b6040517f35567e1a0000000000000000000000000000000000000000000000000000000081523060048201526000602482018190529073ffffffffffffffffffffffffffffffffffffffff7f000000000000000000000000000000000000000000000000000000000000000016906335567e1a9060440161134c565b60606115ab611673565b6003826040516115bb9190612deb565b908152602001604051809103902080546115d490612e07565b80601f016020809104026020016040519081016040528092919081815260200182805461160090612e07565b801561164d5780601f106116225761010080835404028352916020019161164d565b820191906000526020600020905b81548152906001019060200180831161163057829003601f168201915b50505050509050805160000361166e57506040805160208101909152600081525b919050565b60005462010000900473ffffffffffffffffffffffffffffffffffffffff1633148061169e57503330145b611704576040517f08c379a000000000000000000000000000000000000000000000000000000000815260206004820152600a60248201527f6f6e6c79206f776e65720000000000000000000000000000000000000000000060448201526064016107a2565b565b3373ffffffffffffffffffffffffffffffffffffffff7f0000000000000000000000000000000000000000000000000000000000000000161480611767575060005462010000900473ffffffffffffffffffffffffffffffffffffffff1633145b80611789575060015473ffffffffffffffffffffffffffffffffffffffff1633145b611704576040517f08c379a000000000000000000000000000000000000000000000000000000000815260206004820152602c60248201527f6163636f756e743a206e6f74204f776e6572206f7220456e747279506f696e7460448201527f206f72204f70657261746f72000000000000000000000000000000000000000060648201526084016107a2565b6000808473ffffffffffffffffffffffffffffffffffffffff16848460405161183e9190612deb565b60006040518083038185875af1925050503d806000811461187b576040519150601f19603f3d011682016040523d82523d6000602084013e611880565b606091505b50915091508161085257805160208201fd5b73ffffffffffffffffffffffffffffffffffffffff811661190f576040517f08c379a000000000000000000000000000000000000000000000000000000000815260206004820152601c60248201527f677561726469616e20697320746865207a65726f20616464726573730000000060448201526064016107a2565b600280547fffffffffffffffffffffffff00000000000000000000000000000000000000001673ffffffffffffffffffffffffffffffffffffffff92909216919091179055565b61086a611673565b7f4910fdfa16fed3260ed0e7147f7cc6da11a60208b5b9406d12a635614ffd91435460ff16156119965761199183611e9a565b505050565b8273ffffffffffffffffffffffffffffffffffffffff166352d1902d6040518163ffffffff1660e01b8152600401602060405180830381865afa925050508015611a1b575060408051601f3d9081017fffffffffffffffffffffffffffffffffffffffffffffffffffffffffffffffe0168201909252611a1891810190613046565b60015b611aa7576040517f08c379a000000000000000000000000000000000000000000000000000000000815260206004820152602e60248201527f45524331393637557067726164653a206e657720696d706c656d656e7461746960448201527f6f6e206973206e6f74205555505300000000000000000000000000000000000060648201526084016107a2565b7f360894a13ba1a3210667c828492db98dca3e2076cc3735a920a3ca505d382bbc8114611b56576040517f08c379a000000000000000000000000000000000000000000000000000000000815260206004820152602960248201527f45524331393637557067726164653a20756e737570706f727465642070726f7860448201527f6961626c6555554944000000000000000000000000000000000000000000000060648201526084016107a2565b50611991838383611fa4565b3373ffffffffffffffffffffffffffffffffffffffff7f00000000000000000000000000000000000000000000000000000000000000001614611704576040517f08c379a000000000000000000000000000000000000000000000000000000000815260206004820152601c60248201527f6163636f756e743a206e6f742066726f6d20456e747279506f696e740000000060448201526064016107a2565b600080611c5b836040517f19457468657265756d205369676e6564204d6573736167653a0a3332000000006020820152603c8101829052600090605c01604051602081830303815290604052805190602001209050919050565b9050611cab611c6e610140860186612d27565b8080601f0160208091040260200160405190810160405280939291908181526020018383808284376000920191909152508593925050611fc99050565b60005462010000900473ffffffffffffffffffffffffffffffffffffffff908116911614611cdd5760019150506106e0565b5060009392505050565b801561086a5760405160009033907fffffffffffffffffffffffffffffffffffffffffffffffffffffffffffffffff90849084818181858888f193505050503d8060008114610852576040519150601f19603f3d011682016040523d82523d6000602084013e610852565b600080547fffffffffffffffffffff0000000000000000000000000000000000000000ffff166201000073ffffffffffffffffffffffffffffffffffffffff8481168202929092178084556040519190048216927f0000000000000000000000000000000000000000000000000000000000000000909216917f47e55c76e7a6f1fd8996a1da8008c1ea29699cca35e7bcd057f2dec313b6e5de91a350565b60005462010000900473ffffffffffffffffffffffffffffffffffffffff16331480611e34575060025473ffffffffffffffffffffffffffffffffffffffff1633145b611704576040517f08c379a000000000000000000000000000000000000000000000000000000000815260206004820152601e60248201527f6163636f756e743a206e6f74204f776e6572206f7220477561726469616e000060448201526064016107a2565b73ffffffffffffffffffffffffffffffffffffffff81163b611f3e576040517f08c379a000000000000000000000000000000000000000000000000000000000815260206004820152602d60248201527f455243313936373a206e657720696d706c656d656e746174696f6e206973206e60448201527f6f74206120636f6e74726163740000000000000000000000000000000000000060648201526084016107a2565b7f360894a13ba1a3210667c828492db98dca3e2076cc3735a920a3ca505d382bbc80547fffffffffffffffffffffffff00000000000000000000000000000000000000001673ffffffffffffffffffffffffffffffffffffffff92909216919091179055565b611fad83611fed565b600082511180611fba5750805b1561199157610e49838361203a565b6000806000611fd8858561205f565b91509150611fe5816120a4565b509392505050565b611ff681611e9a565b60405173ffffffffffffffffffffffffffffffffffffffff8216907fbc7cd75a20ee27fd9adebab32041f755214dbc6bffa90cc0225b39da2e5c2d3b90600090a250565b6060610a8e838360405180606001604052806027815260200161308f60279139612257565b60008082516041036120955760208301516040840151606085015160001a612089878285856122dc565b9450945050505061209d565b506000905060025b9250929050565b60008160048111156120b8576120b861305f565b036120c05750565b60018160048111156120d4576120d461305f565b0361213b576040517f08c379a000000000000000000000000000000000000000000000000000000000815260206004820152601860248201527f45434453413a20696e76616c6964207369676e6174757265000000000000000060448201526064016107a2565b600281600481111561214f5761214f61305f565b036121b6576040517f08c379a000000000000000000000000000000000000000000000000000000000815260206004820152601f60248201527f45434453413a20696e76616c6964207369676e6174757265206c656e6774680060448201526064016107a2565b60038160048111156121ca576121ca61305f565b0361086a576040517f08c379a000000000000000000000000000000000000000000000000000000000815260206004820152602260248201527f45434453413a20696e76616c6964207369676e6174757265202773272076616c60448201527f756500000000000000000000000000000000000000000000000000000000000060648201526084016107a2565b60606000808573ffffffffffffffffffffffffffffffffffffffff16856040516122819190612deb565b600060405180830381855af49150503d80600081146122bc576040519150601f19603f3d011682016040523d82523d6000602084013e6122c1565b606091505b50915091506122d2868383876123cb565b9695505050505050565b6000807f7fffffffffffffffffffffffffffffff5d576e7357a4501ddfe92f46681b20a083111561231357506000905060036123c2565b6040805160008082526020820180845289905260ff881692820192909252606081018690526080810185905260019060a0016020604051602081039080840390855afa158015612367573d6000803e3d6000fd5b50506040517fffffffffffffffffffffffffffffffffffffffffffffffffffffffffffffffe0015191505073ffffffffffffffffffffffffffffffffffffffff81166123bb576000600192509250506123c2565b9150600090505b94509492505050565b6060831561246157825160000361245a5773ffffffffffffffffffffffffffffffffffffffff85163b61245a576040517f08c379a000000000000000000000000000000000000000000000000000000000815260206004820152601d60248201527f416464726573733a2063616c6c20746f206e6f6e2d636f6e747261637400000060448201526064016107a2565b508161246b565b61246b8383612473565b949350505050565b8151156124835781518083602001fd5b806040517f08c379a00000000000000000000000000000000000000000000000000000000081526004016107a29190612c2b565b5080546124c390612e07565b6000825580601f106124d3575050565b601f01602090049060005260206000209081019061086a91905b8082111561250157600081556001016124ed565b5090565b73ffffffffffffffffffffffffffffffffffffffff8116811461086a57600080fd5b60008083601f84011261253957600080fd5b50813567ffffffffffffffff81111561255157600080fd5b60208301915083602082850101111561209d57600080fd5b60008060008060008060008060c0898b03121561258557600080fd5b883561259081612505565b975060208901356125a081612505565b965060408901356125b081612505565b955060608901359450608089013567ffffffffffffffff808211156125d457600080fd5b6125e08c838d01612527565b909650945060a08b01359150808211156125f957600080fd5b506126068b828c01612527565b999c989b5096995094979396929594505050565b60006020828403121561262c57600080fd5b81357fffffffff0000000000000000000000000000000000000000000000000000000081168114610a8e57600080fd5b60006020828403121561266e57600080fd5b8135610a8e81612505565b60008060008060006080868803121561269157600080fd5b853561269c81612505565b945060208601356126ac81612505565b935060408601359250606086013567ffffffffffffffff8111156126cf57600080fd5b6126db88828901612527565b969995985093965092949392505050565b60008083601f8401126126fe57600080fd5b50813567ffffffffffffffff81111561271657600080fd5b6020830191508360208260051b850101111561209d57600080fd5b6000806000806040858703121561274757600080fd5b843567ffffffffffffffff8082111561275f57600080fd5b61276b888389016126ec565b9096509450602087013591508082111561278457600080fd5b50612791878288016126ec565b95989497509550505050565b6000806000606084860312156127b257600080fd5b833567ffffffffffffffff8111156127c957600080fd5b840161016081870312156127dc57600080fd5b95602085013595506040909401359392505050565b6000806040838503121561280457600080fd5b823561280f81612505565b946020939093013593505050565b7f4e487b7100000000000000000000000000000000000000000000000000000000600052604160045260246000fd5b604051601f82017fffffffffffffffffffffffffffffffffffffffffffffffffffffffffffffffe016810167ffffffffffffffff811182821017156128935761289361281d565b604052919050565b600067ffffffffffffffff8311156128b5576128b561281d565b6128e660207fffffffffffffffffffffffffffffffffffffffffffffffffffffffffffffffe0601f8601160161284c565b90508281528383830111156128fa57600080fd5b828260208301376000602084830101529392505050565b6000806040838503121561292457600080fd5b823561292f81612505565b9150602083013567ffffffffffffffff81111561294b57600080fd5b8301601f8101851361295c57600080fd5b61296b8582356020840161289b565b9150509250929050565b600082601f83011261298657600080fd5b610a8e8383356020850161289b565b600080604083850312156129a857600080fd5b823567ffffffffffffffff808211156129c057600080fd5b6129cc86838701612975565b935060208501359150808211156129e257600080fd5b5061296b85828601612975565b600080600080600060a08688031215612a0757600080fd5b8535612a1281612505565b9450602086810135612a2381612505565b94506040870135935060608701359250608087013567ffffffffffffffff80821115612a4e57600080fd5b818901915089601f830112612a6257600080fd5b813581811115612a7457612a7461281d565b8060051b9150612a8584830161284c565b818152918301840191848101908c841115612a9f57600080fd5b938501935b83851015612ac95784359250612ab983612505565b8282529385019390850190612aa4565b8096505050505050509295509295909350565b60008060008060608587031215612af257600080fd5b8435612afd81612505565b935060208501359250604085013567ffffffffffffffff811115612b2057600080fd5b61279187828801612527565b60008060008060008060008060a0898b031215612b4857600080fd5b8835612b5381612505565b97506020890135612b6381612505565b9650604089013567ffffffffffffffff80821115612b8057600080fd5b612b8c8c838d016126ec565b909850965060608b0135915080821115612ba557600080fd5b612bb18c838d016126ec565b909650945060808b01359150808211156125f957600080fd5b600060208284031215612bdc57600080fd5b813567ffffffffffffffff811115612bf357600080fd5b61246b84828501612975565b60005b83811015612c1a578181015183820152602001612c02565b83811115610e495750506000910152565b6020815260008251806020840152612c4a816040850160208701612bff565b601f017fffffffffffffffffffffffffffffffffffffffffffffffffffffffffffffffe0169190910160400192915050565b60008060008060008060a08789031215612c9557600080fd5b8635612ca081612505565b95506020870135612cb081612505565b94506040870135935060608701359250608087013567ffffffffffffffff811115612cda57600080fd5b612ce689828a01612527565b979a9699509497509295939492505050565b7f4e487b7100000000000000000000000000000000000000000000000000000000600052603260045260246000fd5b60008083357fffffffffffffffffffffffffffffffffffffffffffffffffffffffffffffffe1843603018112612d5c57600080fd5b83018035915067ffffffffffffffff821115612d7757600080fd5b60200191503681900382131561209d57600080fd5b60007fffffffffffffffffffffffffffffffffffffffffffffffffffffffffffffffff8203612de4577f4e487b7100000000000000000000000000000000000000000000000000000000600052601160045260246000fd5b5060010190565b60008251612dfd818460208701612bff565b9190910192915050565b600181811c90821680612e1b57607f821691505b602082108103612e54577f4e487b7100000000000000000000000000000000000000000000000000000000600052602260045260246000fd5b50919050565b601f82111561199157600081815260208120601f850160051c81016020861015612e815750805b601f850160051c820191505b81811015610be357828155600101612e8d565b815167ffffffffffffffff811115612eba57612eba61281d565b612ece81612ec88454612e07565b84612e5a565b602080601f831160018114612f215760008415612eeb5750858301515b7fffffffffffffffffffffffffffffffffffffffffffffffffffffffffffffffff600386901b1c1916600185901b178555610be3565b6000858152602081207fffffffffffffffffffffffffffffffffffffffffffffffffffffffffffffffe08616915b82811015612f6e57888601518255948401946001909101908401612f4f565b5085821015612faa57878501517fffffffffffffffffffffffffffffffffffffffffffffffffffffffffffffffff600388901b60f8161c191681555b5050505050600190811b01905550565b600073ffffffffffffffffffffffffffffffffffffffff8085168352602060408185015260a0840185516060604087015281815180845260c0880191508483019350600092505b8083101561302357835186168252928401926001929092019190840190613001565b508388015160608801526040880151608088015280955050505050509392505050565b60006020828403121561305857600080fd5b5051919050565b7f4e487b7100000000000000000000000000000000000000000000000000000000600052602160045260246000fdfe416464726573733a206c6f772d6c6576656c2064656c65676174652063616c6c206661696c6564a2646970667358221220253f4b9a39d5a0f41e7a7a9f3b23227d3a2b6632857ddd22c1f60a10554e239264736f6c634300080f0033",
  "devdoc": {
    "kind": "dev",
    "methods": {},
    "version": 1
  },
  "userdoc": {
    "kind": "user",
    "methods": {
      "createAccount(address,uint256,address,uint256,uint256,address[])": {
        "notice": "create an account, and return its address. returns the address even if the account is already deployed. Note that during UserOperation execution, this method is called only if the account is not deployed. This method returns an existing account address so that entryPoint.getSenderAddress() would work even after account creation"
      },
      "getAddress(address,uint256,address,uint256,uint256,address[])": {
        "notice": "calculate the counterfactual address of this account as it would be returned by createAccount()"
      }
    },
    "notice": "A sample factory contract for SimpleAccount A UserOperations \"initCode\" holds the address of the factory, and a method call (to createAccount, in this sample factory). The factory's createAccount returns the target account address even if it is already installed. This way, the entryPoint.getSenderAddress() can be called either before or after the account is created.",
    "version": 1
  },
  "storageLayout": {
    "storage": [],
    "types": null
  }
}