{
  "address": "0xb9410693737874EA7E3224aE0fe187c5F7Ce5E2c",
  "abi": [
    {
      "inputs": [
        {
          "internalType": "contract IEntryPoint",
          "name": "_entryPoint",
          "type": "address"
        }
      ],
      "stateMutability": "nonpayable",
      "type": "constructor"
    },
    {
      "inputs": [],
      "name": "accountImplementation",
      "outputs": [
        {
          "internalType": "contract TSPAccount",
          "name": "",
          "type": "address"
        }
      ],
      "stateMutability": "view",
      "type": "function"
    },
    {
      "inputs": [
        {
          "internalType": "address",
          "name": "owner",
          "type": "address"
        },
        {
          "internalType": "uint256",
          "name": "salt",
          "type": "uint256"
        },
        {
          "internalType": "address",
          "name": "guardian",
          "type": "address"
        },
        {
          "internalType": "uint256",
          "name": "threshold",
          "type": "uint256"
        },
        {
          "internalType": "uint256",
          "name": "guardianDelay",
          "type": "uint256"
        },
        {
          "internalType": "address[]",
          "name": "guardians",
          "type": "address[]"
        }
      ],
      "name": "createAccount",
      "outputs": [
        {
          "internalType": "contract TSPAccount",
          "name": "ret",
          "type": "address"
        }
      ],
      "stateMutability": "nonpayable",
      "type": "function"
    },
    {
      "inputs": [
        {
          "internalType": "address",
          "name": "owner",
          "type": "address"
        },
        {
          "internalType": "uint256",
          "name": "salt",
          "type": "uint256"
        },
        {
          "internalType": "address",
          "name": "guardian",
          "type": "address"
        },
        {
          "internalType": "uint256",
          "name": "threshold",
          "type": "uint256"
        },
        {
          "internalType": "uint256",
          "name": "guardianDelay",
          "type": "uint256"
        },
        {
          "internalType": "address[]",
          "name": "guardians",
          "type": "address[]"
        }
      ],
      "name": "getAddress",
      "outputs": [
        {
          "internalType": "address",
          "name": "",
          "type": "address"
        }
      ],
      "stateMutability": "view",
      "type": "function"
    }
  ],
  "transactionHash": "0x9f8c3aff12dd2cc394a778ddc6b322f2e34fb43ac8056bd7d1db5b524338287d",
  "args": [
    "0x48e60BBb664aEfAc9f14aDB42e5FB5b4a119EB66"
  ],
  "numDeployments": 3,
  "solcInputHash": "51be909a22f014124242536b349f8e80",
  "bytecode": "0x60a060405234801561001057600080fd5b5060405161426438038061426483398101604081905261002f91610088565b8060405161003c9061007b565b6001600160a01b039091168152602001604051809103906000f080158015610068573d6000803e3d6000fd5b506001600160a01b0316608052506100b8565b6132fd80610f6783390190565b60006020828403121561009a57600080fd5b81516001600160a01b03811681146100b157600080fd5b9392505050565b608051610e886100df6000396000818160510152818160fc01526102670152610e886000f3fe60806040523480156200001157600080fd5b5060043610620000465760003560e01c806311464fbe146200004b5780631663e1f3146200009c5780631e00a14d14620000b3575b600080fd5b620000737f000000000000000000000000000000000000000000000000000000000000000081565b60405173ffffffffffffffffffffffffffffffffffffffff909116815260200160405180910390f35b62000073620000ad36600462000406565b620000ca565b62000073620000c436600462000406565b62000224565b6000620002178660001b60405180602001620000e6906200039f565b6020820181038252601f19601f820116604052507f00000000000000000000000000000000000000000000000000000000000000008a89898989604051602401620001369594939291906200053a565b604080517fffffffffffffffffffffffffffffffffffffffffffffffffffffffffffffffe0818403018152918152602080830180517bffffffffffffffffffffffffffffffffffffffffffffffffffffffff167f5a907818000000000000000000000000000000000000000000000000000000001790529051620001bd93929101620005ee565b604080517fffffffffffffffffffffffffffffffffffffffffffffffffffffffffffffffe081840301815290829052620001fb92916020016200065e565b604051602081830303815290604052805190602001206200035f565b90505b9695505050505050565b60008062000237888888888888620000ca565b905073ffffffffffffffffffffffffffffffffffffffff81163b801562000261575090506200021a565b8760001b7f00000000000000000000000000000000000000000000000000000000000000008a89898989604051602401620002a19594939291906200053a565b604080517fffffffffffffffffffffffffffffffffffffffffffffffffffffffffffffffe08184030181529181526020820180517bffffffffffffffffffffffffffffffffffffffffffffffffffffffff167f5a907818000000000000000000000000000000000000000000000000000000001790525162000323906200039f565b62000330929190620005ee565b8190604051809103906000f590508015801562000351573d6000803e3d6000fd5b509998505050505050505050565b60006200036e83833062000375565b9392505050565b6000604051836040820152846020820152828152600b8101905060ff815360559020949350505050565b6107c1806200069283390190565b803573ffffffffffffffffffffffffffffffffffffffff81168114620003d257600080fd5b919050565b7f4e487b7100000000000000000000000000000000000000000000000000000000600052604160045260246000fd5b60008060008060008060c087890312156200042057600080fd5b6200042b87620003ad565b955060208088013595506200044360408901620003ad565b9450606088013593506080880135925060a088013567ffffffffffffffff808211156200046f57600080fd5b818a0191508a601f8301126200048457600080fd5b813581811115620004995762000499620003d7565b8060051b6040517fffffffffffffffffffffffffffffffffffffffffffffffffffffffffffffffe0603f83011681018181108582111715620004df57620004df620003d7565b60405291825284820192508381018501918d831115620004fe57600080fd5b938501935b8285101562000527576200051785620003ad565b8452938501939285019262000503565b8096505050505050509295509295509295565b600060a0820173ffffffffffffffffffffffffffffffffffffffff808916845260208189168186015287604086015286606086015260a0608086015282865180855260c087019150828801945060005b81811015620005aa5785518516835294830194918301916001016200058a565b50909b9a5050505050505050505050565b60005b83811015620005d8578181015183820152602001620005be565b83811115620005e8576000848401525b50505050565b73ffffffffffffffffffffffffffffffffffffffff8316815260406020820152600082518060408401526200062b816060850160208701620005bb565b601f017fffffffffffffffffffffffffffffffffffffffffffffffffffffffffffffffe016919091016060019392505050565b6000835162000672818460208801620005bb565b83519083019062000688818360208801620005bb565b0194935050505056fe60806040526040516107c13803806107c183398101604081905261002291610321565b61002e82826000610035565b505061043e565b61003e8361006b565b60008251118061004b5750805b156100665761006483836100ab60201b6100291760201c565b505b505050565b610074816100d7565b6040516001600160a01b038216907fbc7cd75a20ee27fd9adebab32041f755214dbc6bffa90cc0225b39da2e5c2d3b90600090a250565b60606100d0838360405180606001604052806027815260200161079a602791396101a9565b9392505050565b6100ea8161022260201b6100551760201c565b6101515760405162461bcd60e51b815260206004820152602d60248201527f455243313936373a206e657720696d706c656d656e746174696f6e206973206e60448201526c1bdd08184818dbdb9d1c9858dd609a1b60648201526084015b60405180910390fd5b806101887f360894a13ba1a3210667c828492db98dca3e2076cc3735a920a3ca505d382bbc60001b61023160201b6100711760201c565b80546001600160a01b0319166001600160a01b039290921691909117905550565b6060600080856001600160a01b0316856040516101c691906103ef565b600060405180830381855af49150503d8060008114610201576040519150601f19603f3d011682016040523d82523d6000602084013e610206565b606091505b50909250905061021886838387610234565b9695505050505050565b6001600160a01b03163b151590565b90565b606083156102a357825160000361029c576001600160a01b0385163b61029c5760405162461bcd60e51b815260206004820152601d60248201527f416464726573733a2063616c6c20746f206e6f6e2d636f6e74726163740000006044820152606401610148565b50816102ad565b6102ad83836102b5565b949350505050565b8151156102c55781518083602001fd5b8060405162461bcd60e51b8152600401610148919061040b565b634e487b7160e01b600052604160045260246000fd5b60005b838110156103105781810151838201526020016102f8565b838111156100645750506000910152565b6000806040838503121561033457600080fd5b82516001600160a01b038116811461034b57600080fd5b60208401519092506001600160401b038082111561036857600080fd5b818501915085601f83011261037c57600080fd5b81518181111561038e5761038e6102df565b604051601f8201601f19908116603f011681019083821181831017156103b6576103b66102df565b816040528281528860208487010111156103cf57600080fd5b6103e08360208301602088016102f5565b80955050505050509250929050565b600082516104018184602087016102f5565b9190910192915050565b602081526000825180602084015261042a8160408501602087016102f5565b601f01601f19169190910160400192915050565b61034d8061044d6000396000f3fe60806040523661001357610011610017565b005b6100115b610027610022610074565b6100b9565b565b606061004e83836040518060600160405280602781526020016102f1602791396100dd565b9392505050565b73ffffffffffffffffffffffffffffffffffffffff163b151590565b90565b60006100b47f360894a13ba1a3210667c828492db98dca3e2076cc3735a920a3ca505d382bbc5473ffffffffffffffffffffffffffffffffffffffff1690565b905090565b3660008037600080366000845af43d6000803e8080156100d8573d6000f35b3d6000fd5b60606000808573ffffffffffffffffffffffffffffffffffffffff16856040516101079190610283565b600060405180830381855af49150503d8060008114610142576040519150601f19603f3d011682016040523d82523d6000602084013e610147565b606091505b509150915061015886838387610162565b9695505050505050565b606083156101fd5782516000036101f65773ffffffffffffffffffffffffffffffffffffffff85163b6101f6576040517f08c379a000000000000000000000000000000000000000000000000000000000815260206004820152601d60248201527f416464726573733a2063616c6c20746f206e6f6e2d636f6e747261637400000060448201526064015b60405180910390fd5b5081610207565b610207838361020f565b949350505050565b81511561021f5781518083602001fd5b806040517f08c379a00000000000000000000000000000000000000000000000000000000081526004016101ed919061029f565b60005b8381101561026e578181015183820152602001610256565b8381111561027d576000848401525b50505050565b60008251610295818460208701610253565b9190910192915050565b60208152600082518060208401526102be816040850160208701610253565b601f017fffffffffffffffffffffffffffffffffffffffffffffffffffffffffffffffe016919091016040019291505056fe416464726573733a206c6f772d6c6576656c2064656c65676174652063616c6c206661696c6564a26469706673582212201cd78ab6a31213989661cff2d7d05fc9b9c38b1a848e8249e2e398659a9eb7e364736f6c634300080f0033416464726573733a206c6f772d6c6576656c2064656c65676174652063616c6c206661696c6564a264697066735822122007e9a5aeb3e541d087c9d62aa7a4e791cf89c8ce12ca5e1c4b08a1ad69a6ff2b64736f6c634300080f003360c0604052306080523480156200001557600080fd5b50604051620032fd380380620032fd83398101604081905262000038916200011a565b6001600160a01b03811660a052806200005062000058565b50506200014c565b600054610100900460ff1615620000c55760405162461bcd60e51b815260206004820152602760248201527f496e697469616c697a61626c653a20636f6e747261637420697320696e697469604482015266616c697a696e6760c81b606482015260840160405180910390fd5b60005460ff908116101562000118576000805460ff191660ff9081179091556040519081527f7f26b83ff96e1f2b6a682f133852f6798a09c465da95921460cefb38474024989060200160405180910390a15b565b6000602082840312156200012d57600080fd5b81516001600160a01b03811681146200014557600080fd5b9392505050565b60805160a05161313e620001bf6000396000818161048d01528181610abb01528181610b690152818161134c0152818161159d01528181611a1901528181611c090152611dd30152600081816107600152818161081501528181610c2d01528181610cdd0152610e94015261313e6000f3fe6080604052600436106101af5760003560e01c806352d1902d116100ec578063bc197c811161008a578063d087d28811610064578063d087d2881461054e578063d11a1f0714610563578063e7f43c6814610590578063f23a6e61146105bb57600080fd5b8063bc197c81146104d1578063c399ec8814610519578063c4d66de81461052e57600080fd5b80638da5cb5b116100c65780638da5cb5b146103fb578063a75b87d214610453578063b0d691fe1461047e578063b61d27f6146104b157600080fd5b806352d1902d146103a65780635a907818146103bb57806373cc802a146103db57600080fd5b80633659cfe6116101595780634a58db19116101335780634a58db191461034b5780634d44560d146103535780634f1ef2861461037357806351335b501461038657600080fd5b80633659cfe6146102eb5780633a871cdd1461030b57806347e1da2a1461032b57600080fd5b80630d8e6e2c1161018a5780630d8e6e2c14610237578063150b7a02146102555780632fcb4f04146102cb57600080fd5b806223de29146101bb57806301ffc9a7146101e257806306394c9b1461021757600080fd5b366101b657005b600080fd5b3480156101c757600080fd5b506101e06101d6366004612594565b5050505050505050565b005b3480156101ee57600080fd5b506102026101fd366004612645565b610601565b60405190151581526020015b60405180910390f35b34801561022357600080fd5b506101e0610232366004612687565b6106e6565b34801561024357600080fd5b5060015b60405190815260200161020e565b34801561026157600080fd5b5061029a6102703660046126a4565b7f150b7a020000000000000000000000000000000000000000000000000000000095945050505050565b6040517fffffffff00000000000000000000000000000000000000000000000000000000909116815260200161020e565b3480156102d757600080fd5b506101e06102e6366004612687565b610735565b3480156102f757600080fd5b506101e0610306366004612687565b610749565b34801561031757600080fd5b50610247610326366004612717565b610950565b34801561033757600080fd5b506101e06103463660046127b0565b610976565b6101e0610ab9565b34801561035f57600080fd5b506101e061036e36600461284a565b610b5f565b6101e061038136600461296a565b610c16565b34801561039257600080fd5b506101e06103a13660046129ee565b610e0c565b3480156103b257600080fd5b50610247610e7a565b3480156103c757600080fd5b506101e06103d6366004612a48565b610f66565b3480156103e757600080fd5b506101e06103f6366004612687565b6111a8565b34801561040757600080fd5b5060005461042e9062010000900473ffffffffffffffffffffffffffffffffffffffff1681565b60405173ffffffffffffffffffffffffffffffffffffffff909116815260200161020e565b34801561045f57600080fd5b5060025473ffffffffffffffffffffffffffffffffffffffff1661042e565b34801561048a57600080fd5b507f000000000000000000000000000000000000000000000000000000000000000061042e565b3480156104bd57600080fd5b506101e06104cc366004612b35565b6112bd565b3480156104dd57600080fd5b5061029a6104ec366004612b91565b7fbc197c810000000000000000000000000000000000000000000000000000000098975050505050505050565b34801561052557600080fd5b50610247611306565b34801561053a57600080fd5b506101e0610549366004612687565b6113bd565b34801561055a57600080fd5b50610247611550565b34801561056f57600080fd5b5061058361057e366004612c2f565b6115cc565b60405161020e9190612c90565b34801561059c57600080fd5b5060015473ffffffffffffffffffffffffffffffffffffffff1661042e565b3480156105c757600080fd5b5061029a6105d6366004612ce1565b7ff23a6e61000000000000000000000000000000000000000000000000000000009695505050505050565b60007fffffffff0000000000000000000000000000000000000000000000000000000082167f150b7a0200000000000000000000000000000000000000000000000000000000148061069457507fffffffff0000000000000000000000000000000000000000000000000000000082167f4e2312e000000000000000000000000000000000000000000000000000000000145b806106e057507fffffffff0000000000000000000000000000000000000000000000000000000082167f01ffc9a700000000000000000000000000000000000000000000000000000000145b92915050565b6106ee61169e565b600180547fffffffffffffffffffffffff00000000000000000000000000000000000000001673ffffffffffffffffffffffffffffffffffffffff92909216919091179055565b61073d61169e565b61074681611731565b50565b73ffffffffffffffffffffffffffffffffffffffff7f0000000000000000000000000000000000000000000000000000000000000000163003610813576040517f08c379a000000000000000000000000000000000000000000000000000000000815260206004820152602c60248201527f46756e6374696f6e206d7573742062652063616c6c6564207468726f7567682060448201527f64656c656761746563616c6c000000000000000000000000000000000000000060648201526084015b60405180910390fd5b7f000000000000000000000000000000000000000000000000000000000000000073ffffffffffffffffffffffffffffffffffffffff166108887f360894a13ba1a3210667c828492db98dca3e2076cc3735a920a3ca505d382bbc5473ffffffffffffffffffffffffffffffffffffffff1690565b73ffffffffffffffffffffffffffffffffffffffff161461092b576040517f08c379a000000000000000000000000000000000000000000000000000000000815260206004820152602c60248201527f46756e6374696f6e206d7573742062652063616c6c6564207468726f7567682060448201527f6163746976652070726f78790000000000000000000000000000000000000000606482015260840161080a565b610934816117f5565b60408051600080825260208201909252610746918391906117fd565b600061095a611a01565b6109648484611aa0565b905061096f82611b86565b9392505050565b61097e611bf1565b848114801561098c57508483145b6109f2576040517f08c379a000000000000000000000000000000000000000000000000000000000815260206004820152601360248201527f77726f6e67206172726179206c656e6774687300000000000000000000000000604482015260640161080a565b60005b85811015610ab057610a9e878783818110610a1257610a12612d4b565b9050602002016020810190610a279190612687565b868684818110610a3957610a39612d4b565b90506020020135858585818110610a5257610a52612d4b565b9050602002810190610a649190612d7a565b8080601f016020809104026020016040519081016040528093929190818152602001838380828437600092019190915250611d0092505050565b80610aa881612ddf565b9150506109f5565b50505050505050565b7f00000000000000000000000000000000000000000000000000000000000000006040517fb760faf900000000000000000000000000000000000000000000000000000000815230600482015273ffffffffffffffffffffffffffffffffffffffff919091169063b760faf99034906024016000604051808303818588803b158015610b4457600080fd5b505af1158015610b58573d6000803e3d6000fd5b5050505050565b610b6761169e565b7f00000000000000000000000000000000000000000000000000000000000000006040517f205c287800000000000000000000000000000000000000000000000000000000815273ffffffffffffffffffffffffffffffffffffffff848116600483015260248201849052919091169063205c287890604401600060405180830381600087803b158015610bfa57600080fd5b505af1158015610c0e573d6000803e3d6000fd5b505050505050565b73ffffffffffffffffffffffffffffffffffffffff7f0000000000000000000000000000000000000000000000000000000000000000163003610cdb576040517f08c379a000000000000000000000000000000000000000000000000000000000815260206004820152602c60248201527f46756e6374696f6e206d7573742062652063616c6c6564207468726f7567682060448201527f64656c656761746563616c6c0000000000000000000000000000000000000000606482015260840161080a565b7f000000000000000000000000000000000000000000000000000000000000000073ffffffffffffffffffffffffffffffffffffffff16610d507f360894a13ba1a3210667c828492db98dca3e2076cc3735a920a3ca505d382bbc5473ffffffffffffffffffffffffffffffffffffffff1690565b73ffffffffffffffffffffffffffffffffffffffff1614610df3576040517f08c379a000000000000000000000000000000000000000000000000000000000815260206004820152602c60248201527f46756e6374696f6e206d7573742062652063616c6c6564207468726f7567682060448201527f6163746976652070726f78790000000000000000000000000000000000000000606482015260840161080a565b610dfc826117f5565b610e08828260016117fd565b5050565b610e1461169e565b80518190600003610e4957600383604051610e2f9190612e3e565b90815260200160405180910390206000610e4991906124e2565b81600384604051610e5a9190612e3e565b90815260200160405180910390209081610e749190612ef3565b50505050565b60003073ffffffffffffffffffffffffffffffffffffffff7f00000000000000000000000000000000000000000000000000000000000000001614610f41576040517f08c379a000000000000000000000000000000000000000000000000000000000815260206004820152603860248201527f555550535570677261646561626c653a206d757374206e6f742062652063616c60448201527f6c6564207468726f7567682064656c656761746563616c6c0000000000000000606482015260840161080a565b507f360894a13ba1a3210667c828492db98dca3e2076cc3735a920a3ca505d382bbc90565b600054610100900460ff1615808015610f865750600054600160ff909116105b80610fa05750303b158015610fa0575060005460ff166001145b61102c576040517f08c379a000000000000000000000000000000000000000000000000000000000815260206004820152602e60248201527f496e697469616c697a61626c653a20636f6e747261637420697320616c72656160448201527f647920696e697469616c697a6564000000000000000000000000000000000000606482015260840161080a565b600080547fffffffffffffffffffffffffffffffffffffffffffffffffffffffffffffff00166001179055801561108a57600080547fffffffffffffffffffffffffffffffffffffffffffffffffffffffffffff00ff166101001790555b61109386611d7d565b61109c85611731565b600254604080516060810182528481526020810187905280820186905290517fd1f9445400000000000000000000000000000000000000000000000000000000815273ffffffffffffffffffffffffffffffffffffffff9092169163d1f944549161110c9130919060040161300d565b600060405180830381600087803b15801561112657600080fd5b505af115801561113a573d6000803e3d6000fd5b505050508015610c0e57600080547fffffffffffffffffffffffffffffffffffffffffffffffffffffffffffff00ff169055604051600181527f7f26b83ff96e1f2b6a682f133852f6798a09c465da95921460cefb38474024989060200160405180910390a1505050505050565b73ffffffffffffffffffffffffffffffffffffffff8116611225576040517f08c379a000000000000000000000000000000000000000000000000000000000815260206004820152601d60248201527f6e6577206f776e657220697320746865207a65726f2061646472657373000000604482015260640161080a565b61122d611e1c565b600080547fffffffffffffffffffff0000000000000000000000000000000000000000ffff166201000073ffffffffffffffffffffffffffffffffffffffff84811682810293909317938490556040805192909404168152602081019190915230917f062163f9c32b5f0b299e6e69f3bb349798cb5a44e0484821341ae9b5a5f8101d910160405180910390a250565b6112c5611bf1565b610e74848484848080601f016020809104026020016040519081016040528093929190818152602001838380828437600092019190915250611d0092505050565b6040517f70a0823100000000000000000000000000000000000000000000000000000000815230600482015260009073ffffffffffffffffffffffffffffffffffffffff7f000000000000000000000000000000000000000000000000000000000000000016906370a08231906024015b602060405180830381865afa158015611394573d6000803e3d6000fd5b505050506040513d601f19601f820116820180604052508101906113b89190613099565b905090565b600054610100900460ff16158080156113dd5750600054600160ff909116105b806113f75750303b1580156113f7575060005460ff166001145b611483576040517f08c379a000000000000000000000000000000000000000000000000000000000815260206004820152602e60248201527f496e697469616c697a61626c653a20636f6e747261637420697320616c72656160448201527f647920696e697469616c697a6564000000000000000000000000000000000000606482015260840161080a565b600080547fffffffffffffffffffffffffffffffffffffffffffffffffffffffffffffff0016600117905580156114e157600080547fffffffffffffffffffffffffffffffffffffffffffffffffffffffffffff00ff166101001790555b6114ea82611d7d565b8015610e0857600080547fffffffffffffffffffffffffffffffffffffffffffffffffffffffffffff00ff169055604051600181527f7f26b83ff96e1f2b6a682f133852f6798a09c465da95921460cefb38474024989060200160405180910390a15050565b6040517f35567e1a0000000000000000000000000000000000000000000000000000000081523060048201526000602482018190529073ffffffffffffffffffffffffffffffffffffffff7f000000000000000000000000000000000000000000000000000000000000000016906335567e1a90604401611377565b60606115d661169e565b6003826040516115e69190612e3e565b908152602001604051809103902080546115ff90612e5a565b80601f016020809104026020016040519081016040528092919081815260200182805461162b90612e5a565b80156116785780601f1061164d57610100808354040283529160200191611678565b820191906000526020600020905b81548152906001019060200180831161165b57829003601f168201915b50505050509050805160000361169957506040805160208101909152600081525b919050565b60005462010000900473ffffffffffffffffffffffffffffffffffffffff163314806116c957503330145b61172f576040517f08c379a000000000000000000000000000000000000000000000000000000000815260206004820152600a60248201527f6f6e6c79206f776e657200000000000000000000000000000000000000000000604482015260640161080a565b565b73ffffffffffffffffffffffffffffffffffffffff81166117ae576040517f08c379a000000000000000000000000000000000000000000000000000000000815260206004820152601c60248201527f677561726469616e20697320746865207a65726f206164647265737300000000604482015260640161080a565b600280547fffffffffffffffffffffffff00000000000000000000000000000000000000001673ffffffffffffffffffffffffffffffffffffffff92909216919091179055565b61074661169e565b7f4910fdfa16fed3260ed0e7147f7cc6da11a60208b5b9406d12a635614ffd91435460ff16156118355761183083611ec5565b505050565b8273ffffffffffffffffffffffffffffffffffffffff166352d1902d6040518163ffffffff1660e01b8152600401602060405180830381865afa9250505080156118ba575060408051601f3d9081017fffffffffffffffffffffffffffffffffffffffffffffffffffffffffffffffe01682019092526118b791810190613099565b60015b611946576040517f08c379a000000000000000000000000000000000000000000000000000000000815260206004820152602e60248201527f45524331393637557067726164653a206e657720696d706c656d656e7461746960448201527f6f6e206973206e6f742055555053000000000000000000000000000000000000606482015260840161080a565b7f360894a13ba1a3210667c828492db98dca3e2076cc3735a920a3ca505d382bbc81146119f5576040517f08c379a000000000000000000000000000000000000000000000000000000000815260206004820152602960248201527f45524331393637557067726164653a20756e737570706f727465642070726f7860448201527f6961626c65555549440000000000000000000000000000000000000000000000606482015260840161080a565b50611830838383611fcf565b3373ffffffffffffffffffffffffffffffffffffffff7f0000000000000000000000000000000000000000000000000000000000000000161461172f576040517f08c379a000000000000000000000000000000000000000000000000000000000815260206004820152601c60248201527f6163636f756e743a206e6f742066726f6d20456e747279506f696e7400000000604482015260640161080a565b600080611afa836040517f19457468657265756d205369676e6564204d6573736167653a0a3332000000006020820152603c8101829052600090605c01604051602081830303815290604052805190602001209050919050565b9050611b4a611b0d610140860186612d7a565b8080601f0160208091040260200160405190810160405280939291908181526020018383808284376000920191909152508593925050611ff49050565b60005462010000900473ffffffffffffffffffffffffffffffffffffffff908116911614611b7c5760019150506106e0565b5060009392505050565b80156107465760405160009033907fffffffffffffffffffffffffffffffffffffffffffffffffffffffffffffffff90849084818181858888f193505050503d8060008114610b58576040519150601f19603f3d011682016040523d82523d6000602084013e610b58565b3373ffffffffffffffffffffffffffffffffffffffff7f0000000000000000000000000000000000000000000000000000000000000000161480611c52575060005462010000900473ffffffffffffffffffffffffffffffffffffffff1633145b80611c74575060015473ffffffffffffffffffffffffffffffffffffffff1633145b61172f576040517f08c379a000000000000000000000000000000000000000000000000000000000815260206004820152602c60248201527f6163636f756e743a206e6f74204f776e6572206f7220456e747279506f696e7460448201527f206f72204f70657261746f720000000000000000000000000000000000000000606482015260840161080a565b6000808473ffffffffffffffffffffffffffffffffffffffff168484604051611d299190612e3e565b60006040518083038185875af1925050503d8060008114611d66576040519150601f19603f3d011682016040523d82523d6000602084013e611d6b565b606091505b509150915081610b5857805160208201fd5b600080547fffffffffffffffffffff0000000000000000000000000000000000000000ffff166201000073ffffffffffffffffffffffffffffffffffffffff8481168202929092178084556040519190048216927f0000000000000000000000000000000000000000000000000000000000000000909216917f47e55c76e7a6f1fd8996a1da8008c1ea29699cca35e7bcd057f2dec313b6e5de91a350565b60005462010000900473ffffffffffffffffffffffffffffffffffffffff16331480611e5f575060025473ffffffffffffffffffffffffffffffffffffffff1633145b61172f576040517f08c379a000000000000000000000000000000000000000000000000000000000815260206004820152601e60248201527f6163636f756e743a206e6f74204f776e6572206f7220477561726469616e0000604482015260640161080a565b73ffffffffffffffffffffffffffffffffffffffff81163b611f69576040517f08c379a000000000000000000000000000000000000000000000000000000000815260206004820152602d60248201527f455243313936373a206e657720696d706c656d656e746174696f6e206973206e60448201527f6f74206120636f6e747261637400000000000000000000000000000000000000606482015260840161080a565b7f360894a13ba1a3210667c828492db98dca3e2076cc3735a920a3ca505d382bbc80547fffffffffffffffffffffffff00000000000000000000000000000000000000001673ffffffffffffffffffffffffffffffffffffffff92909216919091179055565b611fd883612018565b600082511180611fe55750805b1561183057610e748383612065565b6000806000612003858561208a565b91509150612010816120cf565b509392505050565b61202181611ec5565b60405173ffffffffffffffffffffffffffffffffffffffff8216907fbc7cd75a20ee27fd9adebab32041f755214dbc6bffa90cc0225b39da2e5c2d3b90600090a250565b606061096f83836040518060600160405280602781526020016130e260279139612282565b60008082516041036120c05760208301516040840151606085015160001a6120b487828585612307565b945094505050506120c8565b506000905060025b9250929050565b60008160048111156120e3576120e36130b2565b036120eb5750565b60018160048111156120ff576120ff6130b2565b03612166576040517f08c379a000000000000000000000000000000000000000000000000000000000815260206004820152601860248201527f45434453413a20696e76616c6964207369676e61747572650000000000000000604482015260640161080a565b600281600481111561217a5761217a6130b2565b036121e1576040517f08c379a000000000000000000000000000000000000000000000000000000000815260206004820152601f60248201527f45434453413a20696e76616c6964207369676e6174757265206c656e67746800604482015260640161080a565b60038160048111156121f5576121f56130b2565b03610746576040517f08c379a000000000000000000000000000000000000000000000000000000000815260206004820152602260248201527f45434453413a20696e76616c6964207369676e6174757265202773272076616c60448201527f7565000000000000000000000000000000000000000000000000000000000000606482015260840161080a565b60606000808573ffffffffffffffffffffffffffffffffffffffff16856040516122ac9190612e3e565b600060405180830381855af49150503d80600081146122e7576040519150601f19603f3d011682016040523d82523d6000602084013e6122ec565b606091505b50915091506122fd868383876123f6565b9695505050505050565b6000807f7fffffffffffffffffffffffffffffff5d576e7357a4501ddfe92f46681b20a083111561233e57506000905060036123ed565b6040805160008082526020820180845289905260ff881692820192909252606081018690526080810185905260019060a0016020604051602081039080840390855afa158015612392573d6000803e3d6000fd5b50506040517fffffffffffffffffffffffffffffffffffffffffffffffffffffffffffffffe0015191505073ffffffffffffffffffffffffffffffffffffffff81166123e6576000600192509250506123ed565b9150600090505b94509492505050565b6060831561248c5782516000036124855773ffffffffffffffffffffffffffffffffffffffff85163b612485576040517f08c379a000000000000000000000000000000000000000000000000000000000815260206004820152601d60248201527f416464726573733a2063616c6c20746f206e6f6e2d636f6e7472616374000000604482015260640161080a565b5081612496565b612496838361249e565b949350505050565b8151156124ae5781518083602001fd5b806040517f08c379a000000000000000000000000000000000000000000000000000000000815260040161080a9190612c90565b5080546124ee90612e5a565b6000825580601f106124fe575050565b601f01602090049060005260206000209081019061074691905b8082111561252c5760008155600101612518565b5090565b73ffffffffffffffffffffffffffffffffffffffff8116811461074657600080fd5b60008083601f84011261256457600080fd5b50813567ffffffffffffffff81111561257c57600080fd5b6020830191508360208285010111156120c857600080fd5b60008060008060008060008060c0898b0312156125b057600080fd5b88356125bb81612530565b975060208901356125cb81612530565b965060408901356125db81612530565b955060608901359450608089013567ffffffffffffffff808211156125ff57600080fd5b61260b8c838d01612552565b909650945060a08b013591508082111561262457600080fd5b506126318b828c01612552565b999c989b5096995094979396929594505050565b60006020828403121561265757600080fd5b81357fffffffff000000000000000000000000000000000000000000000000000000008116811461096f57600080fd5b60006020828403121561269957600080fd5b813561096f81612530565b6000806000806000608086880312156126bc57600080fd5b85356126c781612530565b945060208601356126d781612530565b935060408601359250606086013567ffffffffffffffff8111156126fa57600080fd5b61270688828901612552565b969995985093965092949392505050565b60008060006060848603121561272c57600080fd5b833567ffffffffffffffff81111561274357600080fd5b8401610160818703121561275657600080fd5b95602085013595506040909401359392505050565b60008083601f84011261277d57600080fd5b50813567ffffffffffffffff81111561279557600080fd5b6020830191508360208260051b85010111156120c857600080fd5b600080600080600080606087890312156127c957600080fd5b863567ffffffffffffffff808211156127e157600080fd5b6127ed8a838b0161276b565b9098509650602089013591508082111561280657600080fd5b6128128a838b0161276b565b9096509450604089013591508082111561282b57600080fd5b5061283889828a0161276b565b979a9699509497509295939492505050565b6000806040838503121561285d57600080fd5b823561286881612530565b946020939093013593505050565b7f4e487b7100000000000000000000000000000000000000000000000000000000600052604160045260246000fd5b604051601f82017fffffffffffffffffffffffffffffffffffffffffffffffffffffffffffffffe016810167ffffffffffffffff811182821017156128ec576128ec612876565b604052919050565b600067ffffffffffffffff83111561290e5761290e612876565b61293f60207fffffffffffffffffffffffffffffffffffffffffffffffffffffffffffffffe0601f860116016128a5565b905082815283838301111561295357600080fd5b828260208301376000602084830101529392505050565b6000806040838503121561297d57600080fd5b823561298881612530565b9150602083013567ffffffffffffffff8111156129a457600080fd5b8301601f810185136129b557600080fd5b6129c4858235602084016128f4565b9150509250929050565b600082601f8301126129df57600080fd5b61096f838335602085016128f4565b60008060408385031215612a0157600080fd5b823567ffffffffffffffff80821115612a1957600080fd5b612a25868387016129ce565b93506020850135915080821115612a3b57600080fd5b506129c4858286016129ce565b600080600080600060a08688031215612a6057600080fd5b8535612a6b81612530565b9450602086810135612a7c81612530565b94506040870135935060608701359250608087013567ffffffffffffffff80821115612aa757600080fd5b818901915089601f830112612abb57600080fd5b813581811115612acd57612acd612876565b8060051b9150612ade8483016128a5565b818152918301840191848101908c841115612af857600080fd5b938501935b83851015612b225784359250612b1283612530565b8282529385019390850190612afd565b8096505050505050509295509295909350565b60008060008060608587031215612b4b57600080fd5b8435612b5681612530565b935060208501359250604085013567ffffffffffffffff811115612b7957600080fd5b612b8587828801612552565b95989497509550505050565b60008060008060008060008060a0898b031215612bad57600080fd5b8835612bb881612530565b97506020890135612bc881612530565b9650604089013567ffffffffffffffff80821115612be557600080fd5b612bf18c838d0161276b565b909850965060608b0135915080821115612c0a57600080fd5b612c168c838d0161276b565b909650945060808b013591508082111561262457600080fd5b600060208284031215612c4157600080fd5b813567ffffffffffffffff811115612c5857600080fd5b612496848285016129ce565b60005b83811015612c7f578181015183820152602001612c67565b83811115610e745750506000910152565b6020815260008251806020840152612caf816040850160208701612c64565b601f017fffffffffffffffffffffffffffffffffffffffffffffffffffffffffffffffe0169190910160400192915050565b60008060008060008060a08789031215612cfa57600080fd5b8635612d0581612530565b95506020870135612d1581612530565b94506040870135935060608701359250608087013567ffffffffffffffff811115612d3f57600080fd5b61283889828a01612552565b7f4e487b7100000000000000000000000000000000000000000000000000000000600052603260045260246000fd5b60008083357fffffffffffffffffffffffffffffffffffffffffffffffffffffffffffffffe1843603018112612daf57600080fd5b83018035915067ffffffffffffffff821115612dca57600080fd5b6020019150368190038213156120c857600080fd5b60007fffffffffffffffffffffffffffffffffffffffffffffffffffffffffffffffff8203612e37577f4e487b7100000000000000000000000000000000000000000000000000000000600052601160045260246000fd5b5060010190565b60008251612e50818460208701612c64565b9190910192915050565b600181811c90821680612e6e57607f821691505b602082108103612ea7577f4e487b7100000000000000000000000000000000000000000000000000000000600052602260045260246000fd5b50919050565b601f82111561183057600081815260208120601f850160051c81016020861015612ed45750805b601f850160051c820191505b81811015610c0e57828155600101612ee0565b815167ffffffffffffffff811115612f0d57612f0d612876565b612f2181612f1b8454612e5a565b84612ead565b602080601f831160018114612f745760008415612f3e5750858301515b7fffffffffffffffffffffffffffffffffffffffffffffffffffffffffffffffff600386901b1c1916600185901b178555610c0e565b6000858152602081207fffffffffffffffffffffffffffffffffffffffffffffffffffffffffffffffe08616915b82811015612fc157888601518255948401946001909101908401612fa2565b5085821015612ffd57878501517fffffffffffffffffffffffffffffffffffffffffffffffffffffffffffffffff600388901b60f8161c191681555b5050505050600190811b01905550565b600073ffffffffffffffffffffffffffffffffffffffff8085168352602060408185015260a0840185516060604087015281815180845260c0880191508483019350600092505b8083101561307657835186168252928401926001929092019190840190613054565b508388015160608801526040880151608088015280955050505050509392505050565b6000602082840312156130ab57600080fd5b5051919050565b7f4e487b7100000000000000000000000000000000000000000000000000000000600052602160045260246000fdfe416464726573733a206c6f772d6c6576656c2064656c65676174652063616c6c206661696c6564a26469706673582212207a5120615437ff0fb130549aa7124cc9672e18a146a4ceaea88c3ccbadfa9f4b64736f6c634300080f0033",
  "devdoc": {
    "kind": "dev",
    "methods": {},
    "version": 1
  },
  "userdoc": {
    "kind": "user",
    "methods": {
      "createAccount(address,uint256,address,uint256,uint256,address[])": {
        "notice": "create an account, and return its address. returns the address even if the account is already deployed. Note that during UserOperation execution, this method is called only if the account is not deployed. This method returns an existing account address so that entryPoint.getSenderAddress() would work even after account creation"
      },
      "getAddress(address,uint256,address,uint256,uint256,address[])": {
        "notice": "calculate the counterfactual address of this account as it would be returned by createAccount()"
      }
    },
    "notice": "A sample factory contract for SimpleAccount A UserOperations \"initCode\" holds the address of the factory, and a method call (to createAccount, in this sample factory). The factory's createAccount returns the target account address even if it is already installed. This way, the entryPoint.getSenderAddress() can be called either before or after the account is created.",
    "version": 1
  },
  "storageLayout": {
    "storage": [],
    "types": null
  }
}