{
  "address": "0x90f3E1105E63C877bF9587DE5388C23Cdb702c6B",
  "abi": [
    {
      "inputs": [
        {
          "internalType": "address",
          "name": "_create2factory",
          "type": "address"
        },
        {
          "internalType": "uint256",
          "name": "_paymasterStake",
          "type": "uint256"
        },
        {
          "internalType": "uint32",
          "name": "_unstakeDelaySec",
          "type": "uint32"
        }
      ],
      "stateMutability": "nonpayable",
      "type": "constructor"
    },
    {
      "inputs": [
        {
          "internalType": "uint256",
          "name": "opIndex",
          "type": "uint256"
        },
        {
          "internalType": "address",
          "name": "paymaster",
          "type": "address"
        },
        {
          "internalType": "string",
          "name": "reason",
          "type": "string"
        }
      ],
      "name": "FailedOp",
      "type": "error"
    },
    {
      "anonymous": false,
      "inputs": [
        {
          "indexed": true,
          "internalType": "address",
          "name": "account",
          "type": "address"
        },
        {
          "indexed": false,
          "internalType": "uint256",
          "name": "withdrawTime",
          "type": "uint256"
        }
      ],
      "name": "DepositUnstaked",
      "type": "event"
    },
    {
      "anonymous": false,
      "inputs": [
        {
          "indexed": true,
          "internalType": "address",
          "name": "account",
          "type": "address"
        },
        {
          "indexed": false,
          "internalType": "uint256",
          "name": "totalDeposit",
          "type": "uint256"
        },
        {
          "indexed": false,
          "internalType": "uint256",
          "name": "unstakeDelaySec",
          "type": "uint256"
        }
      ],
      "name": "Deposited",
      "type": "event"
    },
    {
      "anonymous": false,
      "inputs": [
        {
          "indexed": true,
          "internalType": "bytes32",
          "name": "requestId",
          "type": "bytes32"
        },
        {
          "indexed": true,
          "internalType": "address",
          "name": "sender",
          "type": "address"
        },
        {
          "indexed": true,
          "internalType": "address",
          "name": "paymaster",
          "type": "address"
        },
        {
          "indexed": false,
          "internalType": "uint256",
          "name": "nonce",
          "type": "uint256"
        },
        {
          "indexed": false,
          "internalType": "uint256",
          "name": "actualGasCost",
          "type": "uint256"
        },
        {
          "indexed": false,
          "internalType": "uint256",
          "name": "actualGasPrice",
          "type": "uint256"
        },
        {
          "indexed": false,
          "internalType": "bool",
          "name": "success",
          "type": "bool"
        }
      ],
      "name": "UserOperationEvent",
      "type": "event"
    },
    {
      "anonymous": false,
      "inputs": [
        {
          "indexed": true,
          "internalType": "bytes32",
          "name": "requestId",
          "type": "bytes32"
        },
        {
          "indexed": true,
          "internalType": "address",
          "name": "sender",
          "type": "address"
        },
        {
          "indexed": false,
          "internalType": "uint256",
          "name": "nonce",
          "type": "uint256"
        },
        {
          "indexed": false,
          "internalType": "bytes",
          "name": "revertReason",
          "type": "bytes"
        }
      ],
      "name": "UserOperationRevertReason",
      "type": "event"
    },
    {
      "anonymous": false,
      "inputs": [
        {
          "indexed": true,
          "internalType": "address",
          "name": "account",
          "type": "address"
        },
        {
          "indexed": false,
          "internalType": "address",
          "name": "withdrawAddress",
          "type": "address"
        },
        {
          "indexed": false,
          "internalType": "uint256",
          "name": "withdrawAmount",
          "type": "uint256"
        }
      ],
      "name": "Withdrawn",
      "type": "event"
    },
    {
      "inputs": [
        {
          "internalType": "address",
          "name": "account",
          "type": "address"
        },
        {
          "internalType": "uint32",
          "name": "_unstakeDelaySec",
          "type": "uint32"
        }
      ],
      "name": "addStakeTo",
      "outputs": [],
      "stateMutability": "payable",
      "type": "function"
    },
    {
      "inputs": [
        {
          "internalType": "address",
          "name": "account",
          "type": "address"
        }
      ],
      "name": "balanceOf",
      "outputs": [
        {
          "internalType": "uint256",
          "name": "",
          "type": "uint256"
        }
      ],
      "stateMutability": "view",
      "type": "function"
    },
    {
      "inputs": [],
      "name": "create2factory",
      "outputs": [
        {
          "internalType": "address",
          "name": "",
          "type": "address"
        }
      ],
      "stateMutability": "view",
      "type": "function"
    },
    {
      "inputs": [
        {
          "internalType": "address",
          "name": "account",
          "type": "address"
        }
      ],
      "name": "depositTo",
      "outputs": [],
      "stateMutability": "payable",
      "type": "function"
    },
    {
      "inputs": [
        {
          "internalType": "address",
          "name": "",
          "type": "address"
        }
      ],
      "name": "deposits",
      "outputs": [
        {
          "internalType": "uint112",
          "name": "amount",
          "type": "uint112"
        },
        {
          "internalType": "uint32",
          "name": "unstakeDelaySec",
          "type": "uint32"
        },
        {
          "internalType": "uint64",
          "name": "withdrawTime",
          "type": "uint64"
        }
      ],
      "stateMutability": "view",
      "type": "function"
    },
    {
      "inputs": [
        {
          "internalType": "address",
          "name": "account",
          "type": "address"
        }
      ],
      "name": "getDepositInfo",
      "outputs": [
        {
          "components": [
            {
              "internalType": "uint112",
              "name": "amount",
              "type": "uint112"
            },
            {
              "internalType": "uint32",
              "name": "unstakeDelaySec",
              "type": "uint32"
            },
            {
              "internalType": "uint64",
              "name": "withdrawTime",
              "type": "uint64"
            }
          ],
          "internalType": "struct StakeManager.DepositInfo",
          "name": "info",
          "type": "tuple"
        }
      ],
      "stateMutability": "view",
      "type": "function"
    },
    {
      "inputs": [
        {
          "components": [
            {
              "internalType": "address",
              "name": "sender",
              "type": "address"
            },
            {
              "internalType": "uint256",
              "name": "nonce",
              "type": "uint256"
            },
            {
              "internalType": "bytes",
              "name": "initCode",
              "type": "bytes"
            },
            {
              "internalType": "bytes",
              "name": "callData",
              "type": "bytes"
            },
            {
              "internalType": "uint256",
              "name": "callGas",
              "type": "uint256"
            },
            {
              "internalType": "uint256",
              "name": "verificationGas",
              "type": "uint256"
            },
            {
              "internalType": "uint256",
              "name": "preVerificationGas",
              "type": "uint256"
            },
            {
              "internalType": "uint256",
              "name": "maxFeePerGas",
              "type": "uint256"
            },
            {
              "internalType": "uint256",
              "name": "maxPriorityFeePerGas",
              "type": "uint256"
            },
            {
              "internalType": "address",
              "name": "paymaster",
              "type": "address"
            },
            {
              "internalType": "bytes",
              "name": "paymasterData",
              "type": "bytes"
            },
            {
              "internalType": "bytes",
              "name": "signature",
              "type": "bytes"
            }
          ],
          "internalType": "struct UserOperation",
          "name": "userOp",
          "type": "tuple"
        }
      ],
      "name": "getRequestId",
      "outputs": [
        {
          "internalType": "bytes32",
          "name": "",
          "type": "bytes32"
        }
      ],
      "stateMutability": "view",
      "type": "function"
    },
    {
      "inputs": [
        {
          "internalType": "bytes",
          "name": "initCode",
          "type": "bytes"
        },
        {
          "internalType": "uint256",
          "name": "_salt",
          "type": "uint256"
        }
      ],
      "name": "getSenderAddress",
      "outputs": [
        {
          "internalType": "address",
          "name": "",
          "type": "address"
        }
      ],
      "stateMutability": "view",
      "type": "function"
    },
    {
      "inputs": [
        {
          "components": [
            {
              "internalType": "address",
              "name": "sender",
              "type": "address"
            },
            {
              "internalType": "uint256",
              "name": "nonce",
              "type": "uint256"
            },
            {
              "internalType": "bytes",
              "name": "initCode",
              "type": "bytes"
            },
            {
              "internalType": "bytes",
              "name": "callData",
              "type": "bytes"
            },
            {
              "internalType": "uint256",
              "name": "callGas",
              "type": "uint256"
            },
            {
              "internalType": "uint256",
              "name": "verificationGas",
              "type": "uint256"
            },
            {
              "internalType": "uint256",
              "name": "preVerificationGas",
              "type": "uint256"
            },
            {
              "internalType": "uint256",
              "name": "maxFeePerGas",
              "type": "uint256"
            },
            {
              "internalType": "uint256",
              "name": "maxPriorityFeePerGas",
              "type": "uint256"
            },
            {
              "internalType": "address",
              "name": "paymaster",
              "type": "address"
            },
            {
              "internalType": "bytes",
              "name": "paymasterData",
              "type": "bytes"
            },
            {
              "internalType": "bytes",
              "name": "signature",
              "type": "bytes"
            }
          ],
          "internalType": "struct UserOperation",
          "name": "op",
          "type": "tuple"
        },
        {
          "internalType": "address payable",
          "name": "beneficiary",
          "type": "address"
        }
      ],
      "name": "handleOp",
      "outputs": [],
      "stateMutability": "nonpayable",
      "type": "function"
    },
    {
      "inputs": [
        {
          "components": [
            {
              "internalType": "address",
              "name": "sender",
              "type": "address"
            },
            {
              "internalType": "uint256",
              "name": "nonce",
              "type": "uint256"
            },
            {
              "internalType": "bytes",
              "name": "initCode",
              "type": "bytes"
            },
            {
              "internalType": "bytes",
              "name": "callData",
              "type": "bytes"
            },
            {
              "internalType": "uint256",
              "name": "callGas",
              "type": "uint256"
            },
            {
              "internalType": "uint256",
              "name": "verificationGas",
              "type": "uint256"
            },
            {
              "internalType": "uint256",
              "name": "preVerificationGas",
              "type": "uint256"
            },
            {
              "internalType": "uint256",
              "name": "maxFeePerGas",
              "type": "uint256"
            },
            {
              "internalType": "uint256",
              "name": "maxPriorityFeePerGas",
              "type": "uint256"
            },
            {
              "internalType": "address",
              "name": "paymaster",
              "type": "address"
            },
            {
              "internalType": "bytes",
              "name": "paymasterData",
              "type": "bytes"
            },
            {
              "internalType": "bytes",
              "name": "signature",
              "type": "bytes"
            }
          ],
          "internalType": "struct UserOperation[]",
          "name": "ops",
          "type": "tuple[]"
        },
        {
          "internalType": "address payable",
          "name": "beneficiary",
          "type": "address"
        }
      ],
      "name": "handleOps",
      "outputs": [],
      "stateMutability": "nonpayable",
      "type": "function"
    },
    {
      "inputs": [
        {
          "components": [
            {
              "internalType": "address",
              "name": "sender",
              "type": "address"
            },
            {
              "internalType": "uint256",
              "name": "nonce",
              "type": "uint256"
            },
            {
              "internalType": "bytes",
              "name": "initCode",
              "type": "bytes"
            },
            {
              "internalType": "bytes",
              "name": "callData",
              "type": "bytes"
            },
            {
              "internalType": "uint256",
              "name": "callGas",
              "type": "uint256"
            },
            {
              "internalType": "uint256",
              "name": "verificationGas",
              "type": "uint256"
            },
            {
              "internalType": "uint256",
              "name": "preVerificationGas",
              "type": "uint256"
            },
            {
              "internalType": "uint256",
              "name": "maxFeePerGas",
              "type": "uint256"
            },
            {
              "internalType": "uint256",
              "name": "maxPriorityFeePerGas",
              "type": "uint256"
            },
            {
              "internalType": "address",
              "name": "paymaster",
              "type": "address"
            },
            {
              "internalType": "bytes",
              "name": "paymasterData",
              "type": "bytes"
            },
            {
              "internalType": "bytes",
              "name": "signature",
              "type": "bytes"
            }
          ],
          "internalType": "struct UserOperation",
          "name": "op",
          "type": "tuple"
        },
        {
          "components": [
            {
              "internalType": "bytes32",
              "name": "requestId",
              "type": "bytes32"
            },
            {
              "internalType": "uint256",
              "name": "prefund",
              "type": "uint256"
            },
            {
              "internalType": "enum EntryPoint.PaymentMode",
              "name": "paymentMode",
              "type": "uint8"
            },
            {
              "internalType": "uint256",
              "name": "_context",
              "type": "uint256"
            },
            {
              "internalType": "uint256",
              "name": "preOpGas",
              "type": "uint256"
            }
          ],
          "internalType": "struct EntryPoint.UserOpInfo",
          "name": "opInfo",
          "type": "tuple"
        },
        {
          "internalType": "bytes",
          "name": "context",
          "type": "bytes"
        }
      ],
      "name": "internalHandleOp",
      "outputs": [
        {
          "internalType": "uint256",
          "name": "actualGasCost",
          "type": "uint256"
        }
      ],
      "stateMutability": "nonpayable",
      "type": "function"
    },
    {
      "inputs": [
        {
          "internalType": "address",
          "name": "paymaster",
          "type": "address"
        },
        {
          "internalType": "uint256",
          "name": "stake",
          "type": "uint256"
        }
      ],
      "name": "isPaymasterStaked",
      "outputs": [
        {
          "internalType": "bool",
          "name": "",
          "type": "bool"
        }
      ],
      "stateMutability": "view",
      "type": "function"
    },
    {
      "inputs": [
        {
          "internalType": "address",
          "name": "account",
          "type": "address"
        },
        {
          "internalType": "uint256",
          "name": "requiredStake",
          "type": "uint256"
        },
        {
          "internalType": "uint256",
          "name": "requiredDelaySec",
          "type": "uint256"
        }
      ],
      "name": "isStaked",
      "outputs": [
        {
          "internalType": "bool",
          "name": "",
          "type": "bool"
        }
      ],
      "stateMutability": "view",
      "type": "function"
    },
    {
      "inputs": [],
      "name": "paymasterStake",
      "outputs": [
        {
          "internalType": "uint256",
          "name": "",
          "type": "uint256"
        }
      ],
      "stateMutability": "view",
      "type": "function"
    },
    {
      "inputs": [
        {
          "components": [
            {
              "internalType": "address",
              "name": "sender",
              "type": "address"
            },
            {
              "internalType": "uint256",
              "name": "nonce",
              "type": "uint256"
            },
            {
              "internalType": "bytes",
              "name": "initCode",
              "type": "bytes"
            },
            {
              "internalType": "bytes",
              "name": "callData",
              "type": "bytes"
            },
            {
              "internalType": "uint256",
              "name": "callGas",
              "type": "uint256"
            },
            {
              "internalType": "uint256",
              "name": "verificationGas",
              "type": "uint256"
            },
            {
              "internalType": "uint256",
              "name": "preVerificationGas",
              "type": "uint256"
            },
            {
              "internalType": "uint256",
              "name": "maxFeePerGas",
              "type": "uint256"
            },
            {
              "internalType": "uint256",
              "name": "maxPriorityFeePerGas",
              "type": "uint256"
            },
            {
              "internalType": "address",
              "name": "paymaster",
              "type": "address"
            },
            {
              "internalType": "bytes",
              "name": "paymasterData",
              "type": "bytes"
            },
            {
              "internalType": "bytes",
              "name": "signature",
              "type": "bytes"
            }
          ],
          "internalType": "struct UserOperation",
          "name": "userOp",
          "type": "tuple"
        }
      ],
      "name": "simulateValidation",
      "outputs": [
        {
          "internalType": "uint256",
          "name": "preOpGas",
          "type": "uint256"
        },
        {
          "internalType": "uint256",
          "name": "prefund",
          "type": "uint256"
        }
      ],
      "stateMutability": "nonpayable",
      "type": "function"
    },
    {
      "inputs": [],
      "name": "unstakeDelaySec",
      "outputs": [
        {
          "internalType": "uint32",
          "name": "",
          "type": "uint32"
        }
      ],
      "stateMutability": "view",
      "type": "function"
    },
    {
      "inputs": [],
      "name": "unstakeDeposit",
      "outputs": [],
      "stateMutability": "nonpayable",
      "type": "function"
    },
    {
      "inputs": [
        {
          "internalType": "address payable",
          "name": "withdrawAddress",
          "type": "address"
        },
        {
          "internalType": "uint256",
          "name": "withdrawAmount",
          "type": "uint256"
        }
      ],
      "name": "withdrawTo",
      "outputs": [],
      "stateMutability": "nonpayable",
      "type": "function"
    },
    {
      "stateMutability": "payable",
      "type": "receive"
    }
  ],
  "transactionHash": "0xebe62800f8cacc09cc36545680985a9fd24d84ff9ee148383ed620d591c7105f",
  "args": [
    "0xce0042B868300000d44A59004Da54A005ffdcf9f",
    "1000000000000000000",
    100
  ],
  "solcInputHash": "ff55e3c34716cae656c07df27230c239",
  "bytecode": "0x60e06040523480156200001157600080fd5b506040516200293238038062002932833981016040819052620000349162000060565b60e01b6001600160e01b03191660805260609190911b6001600160601b03191660c05260a052620000bb565b6000806000606084860312156200007657600080fd5b83516001600160a01b03811681146200008e57600080fd5b60208501516040860151919450925063ffffffff81168114620000b057600080fd5b809150509250925092565b60805160e01c60a05160c05160601c6128256200010d600039600081816101340152818161045b0152611c4e01526000818161018501526119850152600081816102a1015261073001526128256000f3fe60806040526004361061010d5760003560e01c80634a5b84ec116100955780639da4e2f5116100645780639da4e2f5146103f2578063b760faf914610412578063c31e435414610425578063dbbabd6a146104bc578063fc7e286d146104dc57600080fd5b80634a5b84ec146102d85780634baeaf8a146102eb5780635287ce121461030b57806370a08231146103d257600080fd5b80631fa75c86116100dc5780631fa75c861461021a578063205c28781461023a5780632815c17b1461025a57806337bbb73a1461027a578063390b99781461028f57600080fd5b80630bfb68471461012257806317c6a987146101735780631a1c1141146101b55780631c112a44146101ea57600080fd5b3661011d5761011b33610565565b005b600080fd5b34801561012e57600080fd5b506101567f000000000000000000000000000000000000000000000000000000000000000081565b6040516001600160a01b0390911681526020015b60405180910390f35b34801561017f57600080fd5b506101a77f000000000000000000000000000000000000000000000000000000000000000081565b60405190815260200161016a565b3480156101c157600080fd5b506101d56101d036600461212b565b6105e1565b6040805192835260208301919091520161016a565b3480156101f657600080fd5b5061020a610205366004611eaa565b610692565b604051901515815260200161016a565b34801561022657600080fd5b5061020a610235366004611e7e565b610727565b34801561024657600080fd5b5061011b610255366004611e7e565b610761565b34801561026657600080fd5b5061011b610275366004611f21565b6109d9565b34801561028657600080fd5b5061011b610c54565b34801561029b57600080fd5b506102c37f000000000000000000000000000000000000000000000000000000000000000081565b60405163ffffffff909116815260200161016a565b61011b6102e6366004611edf565b610d77565b3480156102f757600080fd5b506101a761030636600461212b565b610ee7565b34801561031757600080fd5b50610398610326366004611e44565b6040805160608082018352600080835260208084018290529284018190526001600160a01b039490941684528382529282902082519384018352546001600160701b0381168452600160701b810463ffffffff1691840191909152600160901b90046001600160401b03169082015290565b6040805182516001600160701b0316815260208084015163ffffffff1690820152918101516001600160401b03169082015260600161016a565b3480156103de57600080fd5b506101a76103ed366004611e44565b610f29565b3480156103fe57600080fd5b506101a761040d3660046121a5565b610f4d565b61011b610420366004611e44565b610565565b34801561043157600080fd5b50610156610440366004612027565b8151602092830120604080516001600160f81b0319818601527f000000000000000000000000000000000000000000000000000000000000000060601b6bffffffffffffffffffffffff191660218201526035810193909352605580840192909252805180840390920182526075909201909152805191012090565b3480156104c857600080fd5b5061011b6104d736600461215f565b6110bc565b3480156104e857600080fd5b506105326104f7366004611e44565b6000602081905290815260409020546001600160701b03811690600160701b810463ffffffff1690600160901b90046001600160401b031683565b604080516001600160701b03909416845263ffffffff90921660208401526001600160401b03169082015260600161016a565b61056f81346111df565b6001600160a01b03811660009081526020818152604091829020805483516001600160701b0382168152600160701b90910463ffffffff16928101929092529133917f73a19dd210f1a7f902193214c0ee91dd35ee5b4d920cba8d519eca65a7b488ca91015b60405180910390a25050565b60008060005a905060006105f485610ee7565b905061060260008683611238565b509093505060c08501355a610617908461266a565b6106219190612608565b9350331561068b5760405162461bcd60e51b815260206004820152602c60248201527f6d7573742062652063616c6c6564206f66662d636861696e207769746820667260448201526b37b69ebd32b93796b0b2323960a11b60648201526084015b60405180910390fd5b5050915091565b6001600160a01b038316600090815260208181526040808320815160608101835290546001600160701b038116808352600160701b820463ffffffff1694830194909452600160901b90046001600160401b031691810191909152908411801590610707575082816020015163ffffffff1610155b801561071e575060408101516001600160401b0316155b95945050505050565b600061075a83837f000000000000000000000000000000000000000000000000000000000000000063ffffffff16610692565b9392505050565b3360009081526020818152604091829020825160608101845290546001600160701b0381168252600160701b810463ffffffff16928201839052600160901b90046001600160401b0316928101929092521561086957600081604001516001600160401b0316116108145760405162461bcd60e51b815260206004820181905260248201527f6d7573742063616c6c20756e7374616b654465706f73697428292066697273746044820152606401610682565b4281604001516001600160401b031611156108695760405162461bcd60e51b81526020600482015260156024820152745769746864726177616c206973206e6f742064756560581b6044820152606401610682565b80516001600160701b03168211156108c35760405162461bcd60e51b815260206004820152601960248201527f576974686472617720616d6f756e7420746f6f206c61726765000000000000006044820152606401610682565b60405180606001604052808383600001516108de9190612642565b6001600160701b0390811682526000602080840182905260409384018290523382528181528382208551815492870151968601516001600160401b0316600160901b0267ffffffffffffffff60901b1963ffffffff98909816600160701b026001600160901b03199094169190951617919091179490941691909117909255516001600160a01b0385169184156108fc02918591818181858888f1935050505015801561098f573d6000803e3d6000fd5b50604080516001600160a01b03851681526020810184905233917fd1c19fbcd4551a5edfb66d43d2e337c04837afda3482b42bdf569a8fccdae5fb910160405180910390a2505050565b816000816001600160401b038111156109f4576109f461271f565b604051908082528060200260200182016040528015610a5757816020015b610a446040805160a0810182526000808252602082018190529091820190815260200160008152602001600081525090565b815260200190600190039081610a125790505b50905060005b82811015610b2c5760005a905036878784818110610a7d57610a7d612709565b9050602002810190610a8f9190612550565b90506060600080610a9f84610ee7565b9050600080610aaf888785611238565b6040805160a08101825287815260208101859052919850889750929450909250908101826001811115610ae457610ae46126f3565b81526020018581526020018760c001355a8a0301815250898981518110610b0d57610b0d612709565b6020026020010181905250505050505050508080600101915050610a5d565b506000805b85811015610c415760005a905036888884818110610b5157610b51612709565b9050602002810190610b639190612550565b90506000858481518110610b7957610b79612709565b60209081029190910101516060810151604051639da4e2f560e01b81529192509081903090639da4e2f590610bb69087908790869060040161245a565b602060405180830381600087803b158015610bd057600080fd5b505af1925050508015610c00575060408051601f3d908101601f19168201909252610bfd91810190612253565b60015b610c2a57600083608001515a8703019050610c20876002878786866113aa565b8801975050610c30565b96909601955b505060019093019250610b31915050565b50610c4c84826116ea565b505050505050565b3360009081526020819052604090208054600160901b90046001600160401b031615610cb65760405162461bcd60e51b8152602060048201526011602482015270616c726561647920756e7374616b696e6760781b6044820152606401610682565b8054600160701b900463ffffffff16610cfe5760405162461bcd60e51b815260206004820152600a6024820152691b9bdd081cdd185ad95960b21b6044820152606401610682565b8054600090610d1a90600160701b900463ffffffff1642612620565b825467ffffffffffffffff60901b1916600160901b6001600160401b03831690810291909117845560405190815290915033907f91e6fc21bf6989ecaaa31f2c7d10426d5fa64279f0af85af30e0964230960ce2906020016105d5565b6001600160a01b0382166000908152602081905260409020805463ffffffff600160701b90910481169083161015610df15760405162461bcd60e51b815260206004820152601c60248201527f63616e6e6f7420646563726561736520756e7374616b652074696d65000000006044820152606401610682565b33600090815260208190526040812054610e159034906001600160701b03166125dd565b604080516060810182526001600160701b0383811680835263ffffffff888116602080860182815260008789018181526001600160a01b038f16808352828552918a902098518954935191516001600160401b0316600160901b0267ffffffffffffffff60901b1992909716600160701b026001600160901b031990941698169790971791909117959095169290921790945584519182528101929092529293507f73a19dd210f1a7f902193214c0ee91dd35ee5b4d920cba8d519eca65a7b488ca910160405180910390a250505050565b6000610ef28261174f565b6040805160208101929092523090820152466060820152608001604051602081830303815290604052805190602001209050919050565b6001600160a01b03166000908152602081905260409020546001600160701b031690565b6000805a9050333014610f5f57600080fd5b600080610f6f6060890189612503565b9050111561104f5760008088356001600160a01b031660808a0135610f9760608c018c612503565b604051610fa59291906123c8565b60006040518083038160008787f1925050503d8060008114610fe3576040519150601f19603f3d011682016040523d82523d6000602084013e610fe8565b606091505b50915091508161104c578051156110475788356001600160a01b031688600001357f1c4fada7374c0a9ee8841fc38afe82932dc0f8e69012e927f061a8bae611a2018b602001358460405161103e9291906124ea565b60405180910390a35b600192505b50505b600086608001355a84030190506110b06000838a611072368c90038c018c6120b0565b8a8a8080601f0160208091040260200160405190810160405280939291908181526020018383808284376000920191909152508992506113aa915050565b98975050505050505050565b60005a905060006110cc84610ee7565b905060008060006110df60008886611238565b92509250925060006040518060a00160405280868152602001858152602001846001811115611110576111106126f3565b8152602001600081526020018960c001355a8903019052604051639da4e2f560e01b81529091506000903090639da4e2f590611154908c908690889060040161245a565b602060405180830381600087803b15801561116e57600080fd5b505af192505050801561119e575060408051601f3d908101601f1916820190925261119b91810190612253565b60015b6111c757600082608001515a89030190506111bf600060028c8688866113aa565b9150506111ca565b90505b6111d488826116ea565b505050505050505050565b6001600160a01b038216600090815260208190526040812080548392906112109084906001600160701b03166125dd565b92506101000a8154816001600160701b0302191690836001600160701b031602179055505050565b600080606060005a905060c086013560a08701351760808701351760e087013517610100870135176effffffffffffffffffffffffffffff81106112b45760405162461bcd60e51b81526020600482015260136024820152726761732076616c756573206f766572666c6f7760681b6044820152606401610682565b6000806112c089611768565b965090506112d18a8a8a848a611794565b975091504360008760018111156112ea576112ea6126f3565b1415611304576112fd8b8b8b858761196b565b9550611317565b6040518060200160405280600081525095505b60005a86039050808b60a00135101561139b578b61133d6101408d016101208e01611e44565b60405162fa072b60e01b815260048101929092526001600160a01b0316602482015260606044820152601e60648201527f55736564206d6f7265207468616e20766572696669636174696f6e4761730000608482015260a401610682565b50505050505093509350939050565b6000805a905060006113bb87611b41565b848102935090506000866040015160018111156113da576113da6126f3565b1461145757828660200151101561143e5760405162461bcd60e51b815260206004820152602260248201527f77616c6c65742070726566756e642062656c6f772061637475616c476173436f6044820152611cdd60f21b6064820152608401610682565b60208601518390036114518835826111df565b5061164d565b845115611625576002886002811115611472576114726126f3565b146114f55761148961014088016101208901611e44565b6001600160a01b031663a9a234098860a001358a88876040518563ffffffff1660e01b81526004016114bd939291906123fc565b600060405180830381600088803b1580156114d757600080fd5b5087f11580156114eb573d6000803e3d6000fd5b5050505050611625565b61150761014088016101208901611e44565b6001600160a01b031663a9a234098860a001358a88876040518563ffffffff1660e01b815260040161153b939291906123fc565b600060405180830381600088803b15801561155557600080fd5b5087f193505050508015611567575060015b61162557611573612735565b806308c379a014156115c25750611588612751565b8061159357506115c4565b896115a66101408a016101208b01611e44565b8260405162fa072b60e01b8152600401610682939291906124c0565b505b886115d761014089016101208a01611e44565b60405162fa072b60e01b815260048101929092526001600160a01b0316602482015260606044820152600d60648201526c1c1bdcdd13dc081c995d995c9d609a1b608482015260a401610682565b5a82039390930192808402925061164d61164761014089016101208a01611e44565b84611b7d565b600080896002811115611662576116626126f3565b14905061167761014089016101208a01611e44565b6001600160a01b031688358851604080516020808e01358252810189905290810186905284151560608201526001600160a01b0392909216917f33fd4d1f25a5461bea901784a6571de6debc16cd0831932c22c6969cd73ba9949060800160405180910390a45050509695505050505050565b6000826001600160a01b03168260405160006040518083038185875af1925050503d8060008114611737576040519150601f19603f3d011682016040523d82523d6000602084013e61173c565b606091505b505090508061174a57600080fd5b505050565b600061175a82611bae565b805190602001209050919050565b60008061177483611bed565b915061177f83611c08565b1561178c57506000915091565b506001915091565b60008060005a90506117a587611c2e565b60008735818660018111156117bc576117bc6126f3565b146117e45760006117cc82610f29565b90508781116117dd578088036117e0565b60005b9250505b604051633f2eb07d60e21b81526001600160a01b0382169063fcbac1f49060a08c01359061181a908d908d908890600401612435565b600060405180830381600088803b15801561183457600080fd5b5087f193505050508015611846575060015b6118c357611852612735565b806308c379a014156118915750611867612751565b806118725750611893565b8a60008260405162fa072b60e01b8152600401610682939291906124c0565b505b60405162fa072b60e01b8152600481018b9052600060248201819052606060448301526064820152608401610682565b60008660018111156118d7576118d76126f3565b14611954576118e581610f29565b8711156119425760405162fa072b60e01b8152600481018b90526000602482015260606044820152601960648201527f77616c6c6574206469646e2774207061792070726566756e6400000000000000608482015260a401610682565b61194c8188611b7d565b869350611959565b600093505b5a830394505050509550959350505050565b60606119aa61198261014087016101208801611e44565b847f000000000000000000000000000000000000000000000000000000000000000001610727565b611a1257856119c161014087016101208801611e44565b60405162fa072b60e01b815260048101929092526001600160a01b0316602482015260606044820152601060648201526f6e6f7420656e6f756768207374616b6560801b608482015260a401610682565b60a0850135829003611a2c61014087016101208801611e44565b6001600160a01b0316637bfd0845828888886040518563ffffffff1660e01b8152600401611a5c93929190612435565b60006040518083038187803b158015611a7457600080fd5b5086fa93505050508015611aaa57506040513d6000823e601f3d908101601f19168201604052611aa79190810190611fa6565b60015b611b3657611ab6612735565b806308c379a01415611ae95750611acb612751565b80611ad65750611aeb565b876115a661014089016101208a01611e44565b505b86611afe61014088016101208901611e44565b60405162fa072b60e01b815260048101929092526001600160a01b031660248201526060604482015260006064820152608401610682565b979650505050505050565b600060e082013561010083013580821415611b6857611b603a83611db6565b949350505050565b611b603a611b7884488501611db6565b611db6565b6001600160a01b038216600090815260208190526040812080548392906112109084906001600160701b0316612642565b6060366000611bc1610160850185612503565b915091508360208184030360405194506020810185016040528085528082602087013750505050919050565b6000611bf882611b41565b611c0183611dcc565b0292915050565b600080611c1d61014084016101208501611e44565b6001600160a01b0316141592915050565b611c3b6040820182612503565b159050611db35760006001600160a01b037f000000000000000000000000000000000000000000000000000000000000000016634af63f02611c806040850185612503565b6040516001600160e01b031960e085901b168152611ca89291906020880135906004016123d8565b602060405180830381600087803b158015611cc257600080fd5b505af1158015611cd6573d6000803e3d6000fd5b505050506040513d601f19601f82011682018060405250810190611cfa9190611e61565b90506001600160a01b038116611d435760405162461bcd60e51b815260206004820152600e60248201526d18dc99585d194c8819985a5b195960921b6044820152606401610682565b81356001600160a01b0316816001600160a01b031614611db15760405162461bcd60e51b8152602060048201526024808201527f73656e64657220646f65736e2774206d617463682063726561746532206164646044820152637265737360e01b6064820152608401610682565b505b50565b6000818310611dc5578161075a565b5090919050565b60008080611de261014085016101208601611e44565b6001600160a01b03161415611df8576003611dfb565b60015b60ff1690508260c00135818460a001350284608001350101915050919050565b8035611e26816127da565b919050565b60006101808284031215611e3e57600080fd5b50919050565b600060208284031215611e5657600080fd5b813561075a816127da565b600060208284031215611e7357600080fd5b815161075a816127da565b60008060408385031215611e9157600080fd5b8235611e9c816127da565b946020939093013593505050565b600080600060608486031215611ebf57600080fd5b8335611eca816127da565b95602085013595506040909401359392505050565b60008060408385031215611ef257600080fd5b8235611efd816127da565b9150602083013563ffffffff81168114611f1657600080fd5b809150509250929050565b600080600060408486031215611f3657600080fd5b83356001600160401b0380821115611f4d57600080fd5b818601915086601f830112611f6157600080fd5b813581811115611f7057600080fd5b8760208260051b8501011115611f8557600080fd5b60209283019550935050840135611f9b816127da565b809150509250925092565b600060208284031215611fb857600080fd5b81516001600160401b03811115611fce57600080fd5b8201601f81018413611fdf57600080fd5b8051611fea81612571565b604051611ff782826126b1565b82815286602084860101111561200c57600080fd5b61201d836020830160208701612681565b9695505050505050565b6000806040838503121561203a57600080fd5b82356001600160401b0381111561205057600080fd5b8301601f8101851361206157600080fd5b803561206c81612571565b60405161207982826126b1565b82815287602084860101111561208e57600080fd5b8260208501602083013760006020938201840152979590910135955050505050565b600060a082840312156120c257600080fd5b60405160a081018181106001600160401b03821117156120e4576120e461271f565b8060405250823581526020830135602082015260408301356002811061210957600080fd5b6040820152606083810135908201526080928301359281019290925250919050565b60006020828403121561213d57600080fd5b81356001600160401b0381111561215357600080fd5b611b6084828501611e2b565b6000806040838503121561217257600080fd5b82356001600160401b0381111561218857600080fd5b61219485828601611e2b565b9250506020830135611f16816127da565b60008060008084860360e08112156121bc57600080fd5b85356001600160401b03808211156121d357600080fd5b6121df89838a01611e2b565b965060a0601f19840112156121f357600080fd5b60208801955060c088013592508083111561220d57600080fd5b828801925088601f84011261222157600080fd5b823591508082111561223257600080fd5b5087602082840101111561224557600080fd5b949793965060200194505050565b60006020828403121561226557600080fd5b5051919050565b81835281816020850137506000828201602090810191909152601f909101601f19169091010190565b600081518084526122ad816020860160208601612681565b601f01601f19169290920160200192915050565b60006101806122e0846122d385611e1b565b6001600160a01b03169052565b602083013560208501526122f76040840184612598565b82604087015261230a838701828461226c565b9250505061231b6060840184612598565b858303606087015261232e83828461226c565b925050506080830135608085015260a083013560a085015260c083013560c085015260e083013560e0850152610100808401358186015250610120612374818501611e1b565b6001600160a01b03169085015261014061239084820185612598565b868403838801526123a284828461226c565b93505050506101606123b681850185612598565b86840383880152611b3684828461226c565b8183823760009101908152919050565b6040815260006123ec60408301858761226c565b9050826020830152949350505050565b60006003851061240e5761240e6126f3565b848252606060208301526124256060830185612295565b9050826040830152949350505050565b60608152600061244860608301866122c1565b60208301949094525060400152919050565b60e08152600061246d60e08301866122c1565b8451602084015260208501516040840152604085015160028110612493576124936126f3565b8060608501525060608501516080840152608085015160a084015282810360c084015261201d8185612295565b8381526001600160a01b038316602082015260606040820181905260009061071e90830184612295565b828152604060208201526000611b606040830184612295565b6000808335601e1984360301811261251a57600080fd5b8301803591506001600160401b0382111561253457600080fd5b60200191503681900382131561254957600080fd5b9250929050565b6000823561017e1983360301811261256757600080fd5b9190910192915050565b60006001600160401b0382111561258a5761258a61271f565b50601f01601f191660200190565b6000808335601e198436030181126125af57600080fd5b83016020810192503590506001600160401b038111156125ce57600080fd5b80360383131561254957600080fd5b60006001600160701b038083168185168083038211156125ff576125ff6126dd565b01949350505050565b6000821982111561261b5761261b6126dd565b500190565b60006001600160401b038083168185168083038211156125ff576125ff6126dd565b60006001600160701b0383811690831681811015612662576126626126dd565b039392505050565b60008282101561267c5761267c6126dd565b500390565b60005b8381101561269c578181015183820152602001612684565b838111156126ab576000848401525b50505050565b601f8201601f191681016001600160401b03811182821017156126d6576126d661271f565b6040525050565b634e487b7160e01b600052601160045260246000fd5b634e487b7160e01b600052602160045260246000fd5b634e487b7160e01b600052603260045260246000fd5b634e487b7160e01b600052604160045260246000fd5b600060033d111561274e5760046000803e5060005160e01c5b90565b600060443d101561275f5790565b6040516003193d81016004833e81513d6001600160401b03816024840111818411171561278e57505050505090565b82850191508151818111156127a65750505050505090565b843d87010160208285010111156127c05750505050505090565b6127cf602082860101876126b1565b509095945050505050565b6001600160a01b0381168114611db357600080fdfea2646970667358221220b50e936b47419fb284f1b1ba8102ae9479ffd7af0fb6690c1587c3cb48c48dd264736f6c63430008070033",
  "devdoc": {
    "kind": "dev",
    "methods": {
      "addStakeTo(address,uint32)": {
        "params": {
          "_unstakeDelaySec": "the new lock time before the deposit can be withdrawn."
        }
      },
      "constructor": {
        "params": {
          "_create2factory": "- contract to \"create2\" wallets (not the EntryPoint itself, so that it can be upgraded)",
          "_paymasterStake": "- locked stake of paymaster (actual value should also cover TX cost)",
          "_unstakeDelaySec": "- minimum time (in seconds) a paymaster stake must be locked"
        }
      },
      "handleOp((address,uint256,bytes,bytes,uint256,uint256,uint256,uint256,uint256,address,bytes,bytes),address)": {
        "params": {
          "beneficiary": "the address to receive the fees",
          "op": "the operation to execute"
        }
      },
      "handleOps((address,uint256,bytes,bytes,uint256,uint256,uint256,uint256,uint256,address,bytes,bytes)[],address)": {
        "params": {
          "beneficiary": "the address to receive the fees",
          "ops": "the operations to execute"
        }
      },
      "isStaked(address,uint256,uint256)": {
        "params": {
          "account": "the account (paymaster) to check",
          "requiredDelaySec": "the minimum required stake time.",
          "requiredStake": "the minimum deposit"
        }
      },
      "simulateValidation((address,uint256,bytes,bytes,uint256,uint256,uint256,uint256,uint256,address,bytes,bytes))": {
        "details": "The node must also verify it doesn't use banned opcodes, and that it doesn't reference storage outside the wallet's data.      In order to split the running opcodes of the wallet (validateUserOp) from the paymaster's validatePaymasterUserOp,      it should look for the NUMBER opcode at depth=1 (which itself is a banned opcode)",
        "returns": {
          "preOpGas": "total gas used by validation (including contract creation)",
          "prefund": "the amount the wallet had to prefund (zero in case a paymaster pays)"
        }
      },
      "withdrawTo(address,uint256)": {
        "params": {
          "withdrawAddress": "the address to send withdrawn value.",
          "withdrawAmount": "the amount to withdraw."
        }
      }
    },
    "version": 1
  },
  "userdoc": {
    "events": {
      "DepositUnstaked(address,uint256)": {
        "notice": "Emitted once a stake is scheduled for withdrawal"
      }
    },
    "kind": "user",
    "methods": {
      "addStakeTo(address,uint32)": {
        "notice": "stake the account's deposit. any pending unstakeDeposit is first cancelled. can also set (or increase) the deposit with call."
      },
      "depositTo(address)": {
        "notice": "add to the deposit of the given account"
      },
      "deposits(address)": {
        "notice": "maps accounts to their deposits"
      },
      "getRequestId((address,uint256,bytes,bytes,uint256,uint256,uint256,uint256,uint256,address,bytes,bytes))": {
        "notice": "generate a request Id - unique identifier for this request. the request ID is a hash over the content of the userOp (except the signature)."
      },
      "getSenderAddress(bytes,uint256)": {
        "notice": "Get counterfactual sender address.  Calculate the sender contract address that will be generated by the initCode and salt in the UserOperation."
      },
      "handleOp((address,uint256,bytes,bytes,uint256,uint256,uint256,uint256,uint256,address,bytes,bytes),address)": {
        "notice": "Execute the given UserOperation."
      },
      "handleOps((address,uint256,bytes,bytes,uint256,uint256,uint256,uint256,uint256,address,bytes,bytes)[],address)": {
        "notice": "Execute a batch of UserOperation."
      },
      "isStaked(address,uint256,uint256)": {
        "notice": "check if the given account is staked and didn't unlock it yet."
      },
      "simulateValidation((address,uint256,bytes,bytes,uint256,uint256,uint256,uint256,uint256,address,bytes,bytes))": {
        "notice": "Simulate a call to wallet.validateUserOp and paymaster.validatePaymasterUserOp. Validation succeeds of the call doesn't revert."
      },
      "unstakeDelaySec()": {
        "notice": "minimum number of blocks to after 'unlock' before amount can be withdrawn."
      },
      "unstakeDeposit()": {
        "notice": "attempt to unstake the deposit. the value can be withdrawn (using withdrawTo) after the unstake delay."
      },
      "withdrawTo(address,uint256)": {
        "notice": "withdraw from the deposit. will fail if the deposit is already staked or too low. after a paymaster unlocks and withdraws some of the value, it must call addStake() to stake the value again."
      }
    },
    "version": 1
  },
  "storageLayout": {
    "storage": [
      {
        "astId": 2695,
        "contract": "contracts/EntryPoint.sol:EntryPoint",
        "label": "deposits",
        "offset": 0,
        "slot": "0",
        "type": "t_mapping(t_address,t_struct(DepositInfo)2689_storage)"
      }
    ],
    "types": {
      "t_address": {
        "encoding": "inplace",
        "label": "address",
        "numberOfBytes": "20"
      },
      "t_mapping(t_address,t_struct(DepositInfo)2689_storage)": {
        "encoding": "mapping",
        "key": "t_address",
        "label": "mapping(address => struct StakeManager.DepositInfo)",
        "numberOfBytes": "32",
        "value": "t_struct(DepositInfo)2689_storage"
      },
      "t_struct(DepositInfo)2689_storage": {
        "encoding": "inplace",
        "label": "struct StakeManager.DepositInfo",
        "members": [
          {
            "astId": 2684,
            "contract": "contracts/EntryPoint.sol:EntryPoint",
            "label": "amount",
            "offset": 0,
            "slot": "0",
            "type": "t_uint112"
          },
          {
            "astId": 2686,
            "contract": "contracts/EntryPoint.sol:EntryPoint",
            "label": "unstakeDelaySec",
            "offset": 14,
            "slot": "0",
            "type": "t_uint32"
          },
          {
            "astId": 2688,
            "contract": "contracts/EntryPoint.sol:EntryPoint",
            "label": "withdrawTime",
            "offset": 18,
            "slot": "0",
            "type": "t_uint64"
          }
        ],
        "numberOfBytes": "32"
      },
      "t_uint112": {
        "encoding": "inplace",
        "label": "uint112",
        "numberOfBytes": "14"
      },
      "t_uint32": {
        "encoding": "inplace",
        "label": "uint32",
        "numberOfBytes": "4"
      },
      "t_uint64": {
        "encoding": "inplace",
        "label": "uint64",
        "numberOfBytes": "8"
      }
    }
  }
}