{
  "address": "0x16d53bCF7d1614D0fF81559abB94bfBC7d3B84D9",
  "abi": [
    {
      "inputs": [
        {
          "internalType": "contract EntryPoint",
          "name": "_entryPoint",
          "type": "address"
        },
        {
          "internalType": "address",
          "name": "_owner",
          "type": "address"
        }
      ],
      "stateMutability": "nonpayable",
      "type": "constructor"
    },
    {
      "anonymous": false,
      "inputs": [
        {
          "indexed": false,
          "internalType": "contract EntryPoint",
          "name": "oldEntryPoint",
          "type": "address"
        },
        {
          "indexed": false,
          "internalType": "contract EntryPoint",
          "name": "newEntryPoint",
          "type": "address"
        }
      ],
      "name": "EntryPointChanged",
      "type": "event"
    },
    {
      "inputs": [],
      "name": "addDeposit",
      "outputs": [],
      "stateMutability": "payable",
      "type": "function"
    },
    {
      "inputs": [],
      "name": "entryPoint",
      "outputs": [
        {
          "internalType": "contract EntryPoint",
          "name": "",
          "type": "address"
        }
      ],
      "stateMutability": "view",
      "type": "function"
    },
    {
      "inputs": [
        {
          "internalType": "address",
          "name": "dest",
          "type": "address"
        },
        {
          "internalType": "uint256",
          "name": "value",
          "type": "uint256"
        },
        {
          "internalType": "bytes",
          "name": "func",
          "type": "bytes"
        }
      ],
      "name": "exec",
      "outputs": [],
      "stateMutability": "nonpayable",
      "type": "function"
    },
    {
      "inputs": [
        {
          "internalType": "address",
          "name": "dest",
          "type": "address"
        },
        {
          "internalType": "uint256",
          "name": "value",
          "type": "uint256"
        },
        {
          "internalType": "bytes",
          "name": "func",
          "type": "bytes"
        }
      ],
      "name": "execFromEntryPoint",
      "outputs": [],
      "stateMutability": "nonpayable",
      "type": "function"
    },
    {
      "inputs": [],
      "name": "nonce",
      "outputs": [
        {
          "internalType": "uint256",
          "name": "",
          "type": "uint256"
        }
      ],
      "stateMutability": "view",
      "type": "function"
    },
    {
      "inputs": [],
      "name": "owner",
      "outputs": [
        {
          "internalType": "address",
          "name": "",
          "type": "address"
        }
      ],
      "stateMutability": "view",
      "type": "function"
    },
    {
      "inputs": [
        {
          "internalType": "address payable",
          "name": "dest",
          "type": "address"
        },
        {
          "internalType": "uint256",
          "name": "amount",
          "type": "uint256"
        }
      ],
      "name": "transfer",
      "outputs": [],
      "stateMutability": "nonpayable",
      "type": "function"
    },
    {
      "inputs": [
        {
          "internalType": "contract EntryPoint",
          "name": "_entryPoint",
          "type": "address"
        }
      ],
      "name": "updateEntryPoint",
      "outputs": [],
      "stateMutability": "nonpayable",
      "type": "function"
    },
    {
      "inputs": [
        {
          "components": [
            {
              "internalType": "address",
              "name": "sender",
              "type": "address"
            },
            {
              "internalType": "uint256",
              "name": "nonce",
              "type": "uint256"
            },
            {
              "internalType": "bytes",
              "name": "initCode",
              "type": "bytes"
            },
            {
              "internalType": "bytes",
              "name": "callData",
              "type": "bytes"
            },
            {
              "internalType": "uint256",
              "name": "callGas",
              "type": "uint256"
            },
            {
              "internalType": "uint256",
              "name": "verificationGas",
              "type": "uint256"
            },
            {
              "internalType": "uint256",
              "name": "preVerificationGas",
              "type": "uint256"
            },
            {
              "internalType": "uint256",
              "name": "maxFeePerGas",
              "type": "uint256"
            },
            {
              "internalType": "uint256",
              "name": "maxPriorityFeePerGas",
              "type": "uint256"
            },
            {
              "internalType": "address",
              "name": "paymaster",
              "type": "address"
            },
            {
              "internalType": "bytes",
              "name": "paymasterData",
              "type": "bytes"
            },
            {
              "internalType": "bytes",
              "name": "signature",
              "type": "bytes"
            }
          ],
          "internalType": "struct UserOperation",
          "name": "userOp",
          "type": "tuple"
        },
        {
          "internalType": "uint256",
          "name": "requiredPrefund",
          "type": "uint256"
        }
      ],
      "name": "verifyUserOp",
      "outputs": [],
      "stateMutability": "nonpayable",
      "type": "function"
    },
    {
      "inputs": [
        {
          "internalType": "address payable",
          "name": "withdrawAddress",
          "type": "address"
        }
      ],
      "name": "withdrawDeposit",
      "outputs": [],
      "stateMutability": "nonpayable",
      "type": "function"
    },
    {
      "stateMutability": "payable",
      "type": "receive"
    }
  ],
  "transactionHash": "0xb58ccb9a415c99ffb0761c28d73ad1ea73456edbe234ed02d039e9e6f5aee2f6",
  "args": [
    "0xF63621e54F16eC6e4A732e44EaA7708935f259eF",
    "0xd21934eD8eAf27a67f0A70042Af50A1D6d195E81"
  ],
  "solcInputHash": "9255faacf3ae4e81db1326413027bfa0",
  "bytecode": "0x608060405234801561001057600080fd5b50604051610aed380380610aed83398101604081905261002f91610077565b600180546001600160a01b039384166001600160a01b031990911617905560008054919092166c01000000000000000000000000026001600160601b039091161790556100c9565b6000806040838503121561008a57600080fd5b8251610095816100b1565b60208401519092506100a6816100b1565b809150509250929050565b6001600160a01b03811681146100c657600080fd5b50565b610a15806100d86000396000f3fe6080604052600436106100955760003560e01c80638da5cb5b116100595780638da5cb5b1461012b578063a9059cbb14610169578063affed0e014610189578063b0d691fe146101b0578063fbfb39e0146101d057600080fd5b80630565bb67146100a15780631b71bb6e146100c35780634a58db19146100e357806351e41700146100eb57806380c5c7d01461010b57600080fd5b3661009c57005b600080fd5b3480156100ad57600080fd5b506100c16100bc366004610846565b6101f0565b005b3480156100cf57600080fd5b506100c16100de3660046107f6565b61023f565b6100c16102b0565b3480156100f757600080fd5b506100c16101063660046107f6565b61031b565b34801561011757600080fd5b506100c1610126366004610846565b610362565b34801561013757600080fd5b50600054600160601b90046001600160a01b03165b6040516001600160a01b0390911681526020015b60405180910390f35b34801561017557600080fd5b506100c161018436600461081a565b61036a565b34801561019557600080fd5b506000546001600160601b0316604051908152602001610160565b3480156101bc57600080fd5b5060015461014c906001600160a01b031681565b3480156101dc57600080fd5b506100c16101eb3660046108cf565b6103ad565b6101f86103d4565b610239848484848080601f01602080910402602001604051908101604052809392919081815260200183838082843760009201919091525061043392505050565b50505050565b6102476103d4565b600154604080516001600160a01b03928316815291831660208301527f450909c1478d09248269d4ad4fa8cba61ca3f50faed58c7aedefa51c7f62b83a910160405180910390a1600180546001600160a01b0319166001600160a01b0392909216919091179055565b600160009054906101000a90046001600160a01b03166001600160a01b0316634a58db19346040518263ffffffff1660e01b81526004016000604051808303818588803b15801561030057600080fd5b505af1158015610314573d6000803e3d6000fd5b5050505050565b60015460405163611d2e7560e11b81526001600160a01b0383811660048301529091169063c23a5cea90602401600060405180830381600087803b15801561030057600080fd5b6101f86104a2565b6103726103d4565b6040516001600160a01b0383169082156108fc029083906000818181858888f193505050501580156103a8573d6000803e3d6000fd5b505050565b6103b56104a2565b6103be826104fc565b6103c7826105ae565b6103d081610658565b5050565b600054600160601b90046001600160a01b03163314806103f357503330145b6104315760405162461bcd60e51b815260206004820152600a60248201526937b7363c9037bbb732b960b11b60448201526064015b60405180910390fd5b565b600080846001600160a01b0316848460405161044f919061090c565b60006040518083038185875af1925050503d806000811461048c576040519150601f19603f3d011682016040523d82523d6000602084013e610491565b606091505b509150915081610314576020810181fd5b6001546001600160a01b031633146104315760405162461bcd60e51b815260206004820152601b60248201527f77616c6c65743a206e6f742066726f6d20456e747279506f696e7400000000006044820152606401610428565b600061050782610680565b90506000808061052361051e610160870187610947565b6106e3565b9250925092506105358482858561074f565b6001600160a01b03166105586000546001600160a01b03600160601b9091041690565b6001600160a01b0316146103145760405162461bcd60e51b815260206004820152601760248201527f77616c6c65743a2077726f6e67207369676e61747572650000000000000000006044820152606401610428565b6105bb6040820182610947565b1515905061065557600080546020830135916001600160601b0390911690806105e383610995565b91906101000a8154816001600160601b0302191690836001600160601b031602179055506001600160601b0316146106555760405162461bcd60e51b815260206004820152601560248201527477616c6c65743a20696e76616c6964206e6f6e636560581b6044820152606401610428565b50565b801561065557604051600090339083156108fc0290849084818181858888f150505050505050565b600061068b826107b7565b80516020918201206040517f19457468657265756d205369676e6564204d6573736167653a0a33320000000092810192909252603c820152605c01604051602081830303815290604052805190602001209050919050565b60008080604184146107375760405162461bcd60e51b815260206004820181905260248201527f77616c6c65743a20696e76616c6964207369676e6174757265206c656e6774686044820152606401610428565b50508235936020840135936040013560001a92509050565b6040805160008082526020820180845287905260ff861692820192909252606081018490526080810183905260019060a0016020604051602081039080840390855afa1580156107a3573d6000803e3d6000fd5b5050604051601f1901519695505050505050565b60603660006107ca610160850185610947565b915091508360208184030360405194506020810185016040528085528082602087013750505050919050565b60006020828403121561080857600080fd5b8135610813816109ca565b9392505050565b6000806040838503121561082d57600080fd5b8235610838816109ca565b946020939093013593505050565b6000806000806060858703121561085c57600080fd5b8435610867816109ca565b935060208501359250604085013567ffffffffffffffff8082111561088b57600080fd5b818701915087601f83011261089f57600080fd5b8135818111156108ae57600080fd5b8860208285010111156108c057600080fd5b95989497505060200194505050565b600080604083850312156108e257600080fd5b823567ffffffffffffffff8111156108f957600080fd5b8301610180818603121561083857600080fd5b6000825160005b8181101561092d5760208186018101518583015201610913565b8181111561093c576000828501525b509190910192915050565b6000808335601e1984360301811261095e57600080fd5b83018035915067ffffffffffffffff82111561097957600080fd5b60200191503681900382131561098e57600080fd5b9250929050565b60006001600160601b03808316818114156109c057634e487b7160e01b600052601160045260246000fd5b6001019392505050565b6001600160a01b038116811461065557600080fdfea264697066735822122060a95252b25b23dd208aa04a5a7d75efffd9ee1f7980d087a2ac978cfed715bd64736f6c63430008070033",
  "devdoc": {
    "kind": "dev",
    "methods": {},
    "version": 1
  },
  "userdoc": {
    "kind": "user",
    "methods": {},
    "version": 1
  },
  "storageLayout": {
    "storage": [
      {
        "astId": 2814,
        "contract": "contracts/samples/SimpleWallet.sol:SimpleWallet",
        "label": "ownerNonce",
        "offset": 0,
        "slot": "0",
        "type": "t_struct(OwnerNonce)2811_storage"
      },
      {
        "astId": 2817,
        "contract": "contracts/samples/SimpleWallet.sol:SimpleWallet",
        "label": "entryPoint",
        "offset": 0,
        "slot": "1",
        "type": "t_contract(EntryPoint)2231"
      }
    ],
    "types": {
      "t_address": {
        "encoding": "inplace",
        "label": "address",
        "numberOfBytes": "20"
      },
      "t_contract(EntryPoint)2231": {
        "encoding": "inplace",
        "label": "contract EntryPoint",
        "numberOfBytes": "20"
      },
      "t_struct(OwnerNonce)2811_storage": {
        "encoding": "inplace",
        "label": "struct SimpleWallet.OwnerNonce",
        "members": [
          {
            "astId": 2808,
            "contract": "contracts/samples/SimpleWallet.sol:SimpleWallet",
            "label": "nonce",
            "offset": 0,
            "slot": "0",
            "type": "t_uint96"
          },
          {
            "astId": 2810,
            "contract": "contracts/samples/SimpleWallet.sol:SimpleWallet",
            "label": "owner",
            "offset": 12,
            "slot": "0",
            "type": "t_address"
          }
        ],
        "numberOfBytes": "32"
      },
      "t_uint96": {
        "encoding": "inplace",
        "label": "uint96",
        "numberOfBytes": "12"
      }
    }
  }
}